:020000022000DC
:1060000000000120E1620200096302000B6302004C
:106010000D6302000F630200116302000000000024
:1060200000000000000000000000000013630200F8
:1060300015630200000000001763020019630200EC
:106040001B6302001B6302001B6302001B63020050
:106050001B6302001B6302001B6302001B63020040
:106060001B6302001B6302001B6302001B63020030
:106070001B6302001B6302001B6302001B63020020
:106080001B6302001B6302001B6302001B63020010
:106090001B6302001B6302004D6402001B630200CD
:1060A0001B6302001B6302001B6302001B630200F0
:1060B0001B6302001B6302000000000000000000E0
:1060C0001B6302001B6302001B6302001B630200D0
:1060D0001B6302001B6302001B6302000000000040
:1060E00000000000000000000000000000000000B0
:1060F00000000000000000000000000000000000A0
:10610000000000000000000000000000000000008F
:10611000000000000000000000000000000000007F
:10612000000000000000000000000000000000006F
:10613000000000000000000000000000000000005F
:10614000000000000000000000000000000000004F
:10615000000000000000000000000000000000003F
:10616000000000000000000000000000000000002F
:10617000000000000000000000000000000000001F
:10618000000000000000000000000000000000000F
:1061900000000000000000000000000000000000FF
:1061A00000000000000000000000000000000000EF
:1061B00000000000000000000000000000000000DF
:1061C00000000000000000000000000000000000CF
:1061D00000000000000000000000000000000000BF
:1061E00000000000000000000000000000000000AF
:1061F000000000000000000000000000000000009F
:1062000010B5054C237833B9044B13B10448AFF3F0
:1062100000800123237010BD2858002000000000DA
:10622000586902000C4B43B10C480D4910B5AFF34F
:1062300000800C48036823B910BD0A48036833B9CD
:106240007047094B002BF7D0BDE810401847064BAC
:10625000002BF5D0184700BF00000000586902006D
:106260002C5800202458002000000000154B002B63
:1062700008BF134B9D46A3F5803A00218B460F467D
:106280001348144A121A00F03DFB0F4B002B00D0AC
:1062900098470E4B002B00D09847002000210400A7
:1062A0000D000D48002802D00C48AFF3008000F02C
:1062B00005FB2000290000F031F800F0EBFA00BFE8
:1062C00000000800000001200000000000000000A5
:1062D0002858002044580020000000000000000062
:1062E0000649074A074B9B1A03DD043BC858D050A8
:1062F000FBDC00F0E9F8FFF7B9FF00006C69020071
:10630000B857002028580020FEE7FEE7FEE7FEE72A
:10631000FEE7FEE7FEE7FEE7FEE7FEE770B50120D9
:10632000094D00F025F845F001050026304600F043
:106330000DF84FF4FA744FF47A40A847013CFAD1B3
:106340000136042EF2D1F0E730690200074B4FF01E
:10635000A041185CD1F804350122824022EA0300F2
:106360001340C1F80805C1F80C35704738690200C0
:10637000C20770B41AD54FF0A04303224FF4003681
:106380004FF480254FF400244FF48011C3F84427C4
:10639000C3F84827C3F84C27C3F85027C3F808654B
:1063A000C3F80855C3F80845C3F8081583070AD58C
:1063B0004FF0A0430C22C3F83427C3F83827C3F8A2
:1063C0003C27C3F8402770BC704700BF00B585B0BC
:1063D00000230390194601AA44F20100019302939D
:1063E00000F004F805B05DF804FB00BF72B6094B7D
:1063F0001B68DB0700D500BEBFF34F8F0649074B74
:10640000CA6802F4E0621343CB60BFF34F8F00BF52
:10641000FDE700BFF0ED00E000ED00E00400FA054C
:1064200001600B6843604A68934204BF00234360E5
:10643000704700BF436843B1026891680B444360F2
:106440005268934204BF00234360704700B583B095
:1064500068460849FFF7E4FF019B43B158681A6892
:1064600090476846FFF7E6FF019B002BF6D103B08B
:106470005DF804FB3C6902004BDF704710B5114C1E
:1064800084B001A8FFF7F8FFA8B9214602A8FFF7DA
:10649000C7FF039B002BF4D01A68596801989047F6
:1064A00002A8FFF7C7FF039B002BF5D101A8FFF758
:1064B000E3FF0028E9D0052801D0FFF787FF04B0EB
:1064C00010BD00BF48690200F0B4B44B1A78062A28
:1064D00020D0B34B1B68062B00F08A80B14AD2F85B
:1064E000883043F47003C2F88830BFF34F8FBFF396
:1064F0006F8F4FF01023D3F80022002AC0F28A8158
:10650000D3F80432002BC0F28581A74BA74A1A604A
:10651000F0BC704704331B681807DAD1A44B1B6822
:1065200003F0F002302A00F0658103F0E003402B15
:1065300000F060819E4B1B6803F0F003302B00F0ED
:106540001E819B4B1B6803F0F002302A00F007818C
:1065500003F0E003402B00F00281954B1B6803F031
:10656000F003302B00F0EB80914B1B6803F0F0023E
:10657000302A00F0D08003F0E003402B00F0CB8005
:106580008B4B1B6803F0F003302B00F0B680884B78
:106590001B6803F0F003302B00F09880844B1B68DD
:1065A00003F0F003502B3FD0814B1B6803F0F00247
:1065B000302A28D003F0E003402B24D07C4B1B680A
:1065C00003F0F002302A03D003F0E003402B80D127
:1065D0004FF08043D3F80024D2077FF57AAF6FF0F5
:1065E0000102C3F800246E4B1B68062B7FF476AFC4
:1065F000704B1B68062B7FF471AF6F4A136843F42E
:10660000806313606AE76D4B6D4A1B6803F04F03AC
:106610001360624B1B78062B7FF45BAF694B1B68E2
:1066200018077FF456AFC9E74FF08052664BD2F897
:106630000414C3F82015D2F80814C3F82415D2F8AE
:106640000C14C3F82815D2F81014C3F82C15D2F87E
:106650001414C3F83015D2F81814C3F83415D2F84E
:106660001C14C3F84015D2F82014C3F84415D2F80E
:106670002414C3F84815D2F82814C3F84C15D2F8DE
:106680002C14C3F85015D2F83014C3F85415D2F8AE
:106690003414C3F86015D2F83814C3F86415D2F86E
:1066A0003C14C3F86815D2F840143C48C3F86C1584
:1066B000D2F844140278C3F87015062A7FF409AFA3
:1066C000404B1B681C077FF404AF6DE73F4E404C06
:1066D0004049414B0527012500203F2237602560B6
:1066E00008601A602D4B1B78062B7FF4F2AE354BF9
:1066F0001B681D077FF4EDAE50E7284B374A1B7827
:106700000321062B11607FF4E4AE2E4B1B681E079D
:106710007FF4DFAE3BE74FF080430022C3F80C214B
:10672000C3F81021C3F838251C4B1B78062B7FF4C7
:1067300070AF244B1B681F077FF4CBAE20E72849BE
:10674000164ACB68127823F08073062ACB607FF458
:10675000C0AE1C4B1B681B077FF4BBAE04E7214B8C
:106760000E4A1B6812782049C3F34233062A0B6095
:10677000B8D1144B1B681A077FF4ABAEEDE6074B9C
:106780001A4A1B781A491160062B7FF4A2AE0D4BF2
:106790001B6819077FF49DAED3E600BFE00F00F041
:1067A0003001001000ED00E0B85700200090D00349
:1067B000E80F00F0340100103C17004058020010B0
:1067C000E40E0040E40F00F000C00040105600400E
:1067D000885600401856004014560040A00500405E
:1067E000F0ED00E0440200103C05004074C007409A
:1067F0000DF0ADBA204B214A1B6812782049C3F333
:106800000423062A0B608FD11E4B1B6819073FF427
:1068100091AE5EE61C4B0122C3F80425D3F8002498
:10682000002AFBD04FF0102315221749C3F800228D
:10683000D1F80034002BFBD04FF010221521124B61
:10684000C2F80412D3F80024002AFBD000220E491B
:10685000C3F80425D1F80034002BFBD0BFF34F8FD1
:106860000A490B4BCA6802F4E0621343CB60BFF3E2
:106870004F8F00BFFDE700BF24030010E00F00F0C2
:1068800040350140E40F00F000E0014000ED00E081
:106890000400FA0508B5074B044613B10021AFF315
:1068A0000080054B1868836A03B19847204600F0C2
:1068B00031F800BF000000005469020070B50D4EB1
:1068C0000D4CA41BA4100025A54209D10B4E0C4C65
:1068D00000F022F8A41BA4100025A54205D170BD2C
:1068E00056F8253098470135EEE756F82530984799
:1068F0000135F2E71C5800201C5800201C580020CD
:106900002058002002440346934200D1704703F808
:10691000011BF9E7FEE700BFF8B500BFF8BC08BCF3
:106920009E467047F8B500BFF8BC08BC9E4670474D
:106930000338FDD870470000111213145C6902007F
:1069400064690200080000005C6902005C690200E2
:0C69500008000000BC5700200000000000
:08695C007D6402000000000050
:0869640008F9FF7F01000000AB
:10696C000090D003000000000000000000000000B8
:10697C00000000000000000000000000000000000B
:10698C0000000000000000000000000000000000FB
:10699C0000000000000000000000000000000000EB
:1069AC0000000000000000000000000000000000DB
:1069BC0000000000000000000000000000000000CB
:1069CC0000000000256202000162020000000000CD
:04000003200062E196
:00000001FF
