:020000022000DC
:1060000000000420E1620200096302000B63020049
:106010000D6302000F630200116302000000000024
:1060200000000000000000000000000013630200F8
:1060300015630200000000001763020019630200EC
:106040001B6302001B630200897B02001B630200CA
:106050001B6302001B6302001B6302001B63020040
:106060001B6302001B6302001B6302001B63020030
:106070001B6302001B6302001B6302001B63020020
:106080001B6302001B6302001B6302001B63020010
:106090001B6302001B6302007D8B02001B63020076
:1060A0001B6302001B6302001B6302001B630200F0
:1060B0001B6302001B6302000000000000000000E0
:1060C0001B6302001B6302001B6302001B630200D0
:1060D0001B6302001B6302001B6302001B630200C0
:1060E0001B6302001B6302001B6302000000000030
:1060F000000000001B630200000000001B630200A0
:10610000000000000000000000000000000000008F
:10611000000000000000000000000000000000007F
:10612000000000000000000000000000000000006F
:10613000000000000000000000000000000000005F
:10614000000000000000000000000000000000004F
:10615000000000000000000000000000000000003F
:10616000000000000000000000000000000000002F
:10617000000000000000000000000000000000001F
:10618000000000000000000000000000000000000F
:1061900000000000000000000000000000000000FF
:1061A00000000000000000000000000000000000EF
:1061B00000000000000000000000000000000000DF
:1061C00000000000000000000000000000000000CF
:1061D00000000000000000000000000000000000BF
:1061E00000000000000000000000000000000000AF
:1061F000000000000000000000000000000000009F
:1062000010B5054C237833B9044B13B10448AFF3F0
:1062100000800123237010BDD85900200000000029
:1062200010C502000C4B43B10C480D4910B5AFF33B
:1062300000800C48036823B910BD0A48036833B9CD
:106240007047094B002BF7D0BDE810401847064BAC
:10625000002BF5D0184700BF0000000010C5020059
:10626000DC590020B859002000000000154B002B1D
:1062700008BF134B9D46A3F5803A00218B460F467D
:106280001348144A121A03F056FD0F4B002B00D08E
:1062900098470E4B002B00D09847002000210400A7
:1062A0000D000D48002802D00C48AFF3008003F029
:1062B000F3FC2000290002F0D1F903F0D9FC00BF63
:1062C00000000800000004200000000000000000A2
:1062D000D8590020B8620020000000000000000033
:1062E0000649074A074B9B1A03DD043BC858D050A8
:1062F000FBDC02F061FBFFF7B9FF000074C5020090
:10630000B8570020D8590020FEE7FEE7FEE7FEE779
:10631000FEE7FEE7FEE7FEE7FEE7FEE7F0B595B035
:10632000002415460F4608461E4601F01DFB384660
:1063300023460822089505A91A9D09960D950A94E9
:106340008DF82C400C9401F063FB9DF814300798F5
:1063500006998DF8114003F00302012A029003917F
:1063600028D0022A04D0384601F002FB15B0F0BD57
:10637000BDF81650C3F3C2038DF81030C5F389156C
:106380000826082D2C4628BF0824334622460EA98D
:10639000384601F03DFB2D1B214608AB02AA0EA892
:1063A000264400F093FD002DEBD1384601F0E0FAD1
:1063B00015B0F0BDBDF81460059DC6F38316C3F398
:1063C000C204B2000EA9384608238DF81040C5F368
:1063D000952501F01DFB08AB0093324628460EA917
:1063E00002AB00F0CDFCBEE7704700BF00B583B044
:1063F000044B0093044A4023FFF790FF03B05DF87D
:1064000004FB00BF0D640200F859002038B50E48A7
:106410000E4D03780E4CEB5C00252570D2B253B9BB
:106420000C3001F03DFE58B90A4B1B7813B12378AC
:10643000002BFCD038BD043002F0C2F80028F3D0A5
:1064400000F0F2FDF0E700BFB8570020B062002076
:10645000385A0020F459002070B51348134A0378C5
:10646000D35C88B0DBB90C3001F09CFD104D0FCD32
:106470006C460FC495E80F0008AD062645F8206D60
:1064800084E80F0029460022074801F039FB08B1D3
:1064900000F0CAFD074B00221A7008B070BD04302E
:1064A00002F00EF8E2E700BFB8570020B06200200B
:1064B00068BD0200F459002070B50D4D0FCD88B0B5
:1064C0006C460FC495E80F0008AD062645F8206D10
:1064D00084E80F0029460022064801F011FB08B1AC
:1064E00000F0A2FD044B00221A7008B070BD00BF7E
:1064F00068BD0200B8570020F459002010B5054CC3
:10650000FFF7DAFF2046042100F0FAFB0123637253
:1065100010BD00BFCC570020F0B5334D85B005F558
:10652000836000F02DFE05F2144000F029FE6A6839
:10653000AF6802EA0701CB1C05EB8303541C1878F3
:1065400010F0030F00F003060ED010F0040016D078
:10655000012E37D0022E02F10200ECD15A8800EB56
:10656000921202EA0701E6E74007F1D459881A8837
:1065700004EB911404EB921202EA0701DBE705EB4E
:106580008101531CC96801913B4005EB830301F075
:106590000301DB680293012902F102041CD00229E5
:1065A00018D1BDF80630BDF80A60C3F38913033370
:1065B00004EB93040D4800F0F1FD00B16C6030462F
:1065C00005B0F0BD1B880232C3F383131A4402EAFC
:1065D0000701B0E70646EDE7BDF80430BDF80A60F4
:1065E000C3F383131C44E5E70C5B0020205F00200D
:1065F0000F4B104810B50022FF240121C3F81824C6
:106600009C6083F820141A605A60C3F8142401F0C7
:1066100061F958B9084A094BD21AD20806D008497C
:10662000034621F8233001339A42FAD110BD00BF4E
:106630000C5B00204CC502004CC5020014C50200D2
:10664000BC59002021B9124A02EBC0000068704713
:1066500030B410490E4D491BC9080ED00E4B5A8854
:10666000824218BF002205D10FE0DC88844203F18A
:10667000040305D001329142F7D1002030BC7047AD
:1066800005EBC200006830BC70472846FAE700BF3F
:1066900014C502004CC50200BC590020094B013949
:1066A00003EBC00003290BD8DFE801F00208060461
:1066B0000220704740797047007970470420704786
:1066C0000020704714C502002DE9F04F384C94F8B3
:1066D000205483B00146002D5CD100285AD0814659
:1066E000A66803F06BFB804602A808F1040700F8D7
:1066F000015D00F0DFFCA0686168D4F800A00144EF
:10670000013120EA0A03A1EB0A0203F1010E7245EE
:106710004FEA9707944607F1010128BFF4467245F6
:1067200088BFA2EB0E05614508F1010836D9AF42DA
:1067300037D8C3F3090B0AF1010551441D44054044
:106740000B449DF80700236000F0DAFC06EA0A0318
:10675000033300214FF0000261F3010244F82310DB
:1067600004F8232034F8232003356BF38F1224F828
:10677000232004EB850504EB83044246638867F31A
:106780008F1349462846638003F0CAFA284603B0AF
:10679000BDE8F08F084603B0BDE8F08F00239B46AC
:1067A000C9E79DF8070000F0ABFC0020F3E700BF4D
:1067B0000C5B00202DE9F047904C94E80C009A42C5
:1067C00084B061D00023C4F81834BFF34F8F6368DE
:1067D000A56827680EE011F0040623D001F003013C
:1067E00001294BD0022903D15288023303EB9213C3
:1067F0009F4212D903EA0500C21C04EB8202117801
:106800008E07E8D14807E9D451881288013303EB99
:10681000911303EB92139F42ECD80020676004B001
:10682000BDE8F08704EB80005A1CC16801912A4042
:1068300004EB820201F00301D2680292022903F103
:10684000020825D0012977D0D4F8105435B12B682F
:1068500028469B6898476D68002DF8D1684B6949B8
:106860001888000440F0020000F0D2F86068236845
:10687000C01A18BF012004B0BDE8F08712880233A7
:10688000C2F383121344B3E7002004B0BDE8F087DD
:10689000BDF806305C48C3F38919B9F1500FCA46F8
:1068A000A8BF4FF0500A6AF38F130AF10801ADF840
:1068B000063001F011F807460028C5D001F054F861
:1068C000334625EA08060136082201A93846B600F3
:1068D00001F070F8B24540F28480002E6CD152462F
:1068E00008234A49384601F065F809F1030608EB28
:1068F0009606D4F81834002B5AD1D4F810544DB160
:106900006B7A3946284613B12B681B6898476D6827
:10691000002DF5D1384601F02BF804A8002300F82B
:106920000D3D00F0C7FBD4F8183403B966609DF83C
:10693000030000F0E5FB99E7BDF804303248C3F3EB
:106940008312062A28BF0622911C62F3891389004C
:10695000ADF8043000F0C0FF074600283FF474AFE4
:1069600001F002F83346082201A9384601F022F866
:10697000BDF8043013F4707F3ED0B2464FF00809E2
:1069800005EA080103314B4604EB81010422384635
:1069900001F010F8BDF804300AF1010AC3F38313C3
:1069A00008F10106534509F10409B046E8D8A0E70B
:1069B000384600F0DDFF59E705EA08010331AAEB8C
:1069C000060504EB810132463846EDB2082300F09B
:1069D000F1FF2A4606F108030C49384600F0EAFFA9
:1069E00083E705EA0801033104EB810152460823DD
:1069F000384600F0DFFF78E746467AE70C5B002078
:106A0000C859002094BD02004CC50200185B00204C
:106A10002DE9F04383B002AB002203F8012DDFF82B
:106A2000E090074618468846D9F8085000F042FB27
:106A3000D9F80820D9F80430D9F80060134401339C
:106A40009B1B012B57D809F21C440121204600F062
:106A50007BFBFFF761FD0146204600F075FB99E8DE
:106A60000A00D9F80820134401335B1A012BECD932
:106A700001240A40033244F004036FF38913023106
:106A80009DF8070049F82230C9F8001000F038FBE3
:106A900000211A4800F04CFB80F3100033192B4002
:106AA00009EB830300043540033540EA1740D86002
:106AB00019F8253067F3C50309F8253039F8253072
:106AC0006FF3891329F8253059F8252068F39F22A0
:106AD000134664F301036FF3820349F8252009F894
:106AE000253099F820341BB1FFF764FE0028FBD154
:106AF00003B0BDE8F0833146BAE700BF285F00204D
:106B00000C5B00202DE9F04782B002AB002403F8B3
:106B1000014D374C8046184692468946A56800F0DC
:106B2000C9FAA2686368276813440133DB1B022B90
:106B30005BD804F21C460121304600F005FBFFF74C
:106B4000EBFC0146304600F0FFFA94E80A00A26828
:106B5000134401335B1A022BEDD901260A4003329C
:106B600046F0040366F3891344F8223003319DF89C
:106B70000700216000F0C4FABB1C2B4004EB830328
:106B800000211C48C3F80CA000F0D2FA80F31000DA
:106B9000BB192B4004EB830300043D40033540EA5E
:106BA0001840D86014F8253068F3C50304F8253080
:106BB00034F8253066F3891324F8253054F825205D
:106BC00069F39F22134666F301036FF3820344F8CF
:106BD000252004F8253094F820341BB1FFF7EAFD96
:106BE0000028FBD102B0BDE8F0873946B5E700BF09
:106BF0000C5B0020285F00202DE9F04F85B004AD2C
:106C0000002405F8014D3C4C0193804628469346EC
:106C10008946A66800F04EFAA268636827681344A4
:106C20000133DB1B032B65D804F21C4501212846E8
:106C300000F08AFAFFF770FC0146284600F084FA5B
:106C400094E80A00A268134401335B1A032BEDD9C0
:106C500001250A4003324FF0020A45F004036AF3AB
:106C6000891344F8223004319DF80F00216000F0B0
:106C700047FA07EB0A0EFA1C0EEA060E324004EB46
:106C8000820204EB8E0E019B1C48CEF80CB0002152
:106C9000D36000F04DFA80F310007A19324004EB13
:106CA000820200043E40033640EA1840D06014F8E7
:106CB000262068F3C50204F8262034F826206AF35B
:106CC000891224F8262054F8262069F39F221346BF
:106CD00065F301036FF3820344F8262004F826309D
:106CE00094F820341BB1FFF765FD0028FBD105B0F7
:106CF000BDE8F08F3946ABE70C5B0020285F002031
:106D000030B4144DD5F81044002154B1237A8B428D
:106D100013D0234602E01A7A8A420ED05B68002B19
:106D2000F9D10172D5F810347BB15B684360D5F8B6
:106D300010345860084630BC704701310A29E4D14C
:106D40004FF0FF31084630BC7047C5F8100443606F
:106D5000F0E700BF0C5B002038B5084BD3F81044B7
:106D6000012583F820543CB12368657220465B6896
:106D700098476468002CF7D138BD00BF0C5B002039
:106D80002DE9F04784B01D460C9C002394F80C803C
:106D90002373EB8881460E461746002B3BD1297A98
:106DA00005290FD06B7A002B3DD1404BA88853F8B2
:106DB00021A00021FFF746FC524603463C492046ED
:106DC00000F066FA062F0FD8DFE807F0484D535A57
:106DD00004633900F168B06896E80C0001910090F6
:106DE0004946204600F054FA2B7A052B05D06B7AE1
:106DF0005BB93049204600F04BFA204600F03CFADF
:106E000084F80C8004B0BDE8F0872B4A2B4920465B
:106E100000F03EFAEDE7284A00922949294A204627
:106E200000F036FABBE7A888FFF738FC264B234969
:106E300053F82020204600F02BFA297AB5E7706934
:106E4000316996E80C000390B068F76802918DE80C
:106E500081004946204600F01BFAC5E74946204616
:106E600000F016FAC0E732684946204600F010FAF2
:106E7000BAE7494696E80C00204600F009FAB3E765
:106E8000B16896E80C0020460091494600F000FAEF
:106E9000AAE7B068F768316996E80C0002918DE8BE
:106EA00081004946204600F0F3F99DE730BE02001C
:106EB00024BE020060BF020018BE020020BE020015
:106EC00000BE0200F8BD0200C0BD0200082900D9C2
:106ED00070472DE9F04F1D46904600232A7B2B7307
:106EE00085B0B8F80630039207460E46002B6BD1EA
:106EF00098F80810052911D098F80930002B6BD1AB
:106F00003C4BB8F8040053F821400021FFF79AFBEE
:106F1000224603463849284600F0BAF9DFF8F8B0AF
:106F2000DFF8F8900024A642494628463ED93A5D4B
:106F3000013400F0ADF9082CF5D13049DFF8E090CC
:106F4000DFF8E0B0284600F0A3F9002411E017F8BC
:106F500004A002F0C5FE50445946437813F0970F41
:106F600014BF52462E222846013400F091F9082C15
:106F700008D0A64249462846E9D8013400F088F9ED
:106F8000082CF6D198F80830052B02D098F8093073
:106F9000A3B91B49284600F07BF9284600F06CF99C
:106FA0009DF80C302B7305B0BDE8F08F01345946C5
:106FB000284600F06DF9082CB5D1BEE7114A1249F8
:106FC000284600F065F9E4E70E4A00920F49104A9E
:106FD000284600F05DF98BE7B8F80400FFF75EFB88
:106FE0000C4B094953F82020284600F051F998F835
:106FF000081085E730BE020024BE0200F0BD02008A
:1070000060BF020018BE020020BE020000BE0200E7
:10701000F8BD0200C0BD0200ECBD0200E4BD0200EC
:107020002CBE0200F4BD020000B585B00023039021
:10703000194601AA44F201000193029300F004F8FA
:1070400005B05DF804FB00BF10B572B6FFF784FE13
:10705000FFF7B0FB0028FBD1104C11492088000439
:1070600040F00100FFF7D4FC0E4B1B68DB0700D596
:1070700000BE20880C49000440F00200FFF7C8FC65
:10708000BFF34F8F09490A4BCA6802F4E062134309
:10709000CB60BFF34F8F00BFFDE700BFC859002092
:1070A0009CBE0200F0ED00E0A8BE020000ED00E092
:1070B0000400FA0570B4EFF3108472B60D4B9A68B1
:1070C000AAB90D490D4E01259D60D1F8805035407B
:1070D0001D60C1F88060D1F884505D604FF0FF33CF
:1070E000C1F88430027004B962B670BC70470123E5
:1070F0000370F8E7A462002000E100E0FC06FFBD99
:10710000094B9A6872B168B910B4EFF3108272B685
:1071100006491C680C605C684C60986002B962B6F5
:107120005DF8044B704700BFA462002000E100E05E
:1071300000B550E8002F0B4640E8003E9EF0000FDF
:10714000F7D110465DF804FB00B550E8003F03EBB3
:10715000010240E8002E9EF0000FF6D110465DF8C7
:1071600004FB00BF00B550E8003FA3EB010240E87C
:10717000002E9EF0000FF6D110465DF804FB00BF14
:1071800000B5012350E8002F42EA030E40E800E179
:1071900091F0000FF6D170465DF804FB00B50023B6
:1071A00050E800EF0EEA030240E8002191F0000FE2
:1071B000F6D170465DF804FBB8B130B4416882681E
:1071C0000468521AD2B2531E2160DBB242B1016888
:1071D0000A685C1E551C0D601370E3B2FF2BF6D1DC
:1071E00003680020187130BC70470E20704700BF44
:1071F000F0B583B002AB002503F8015D04461846E4
:10720000FFF758FF236861681A688A4210D9511E37
:1072100019602168A3680E6812F8015C0A79A78AD0
:10722000E0689B1BDBB29A4207FB050538BF0B7178
:107230009DF80700FFF764FF284603B0F0BD00BFCC
:1072400030B583B002AB002203F8012D0546184685
:107250000C46FFF72FFF2A681368591C1160E96874
:10726000AA8A641AB4FBF2F41C709DF80700FFF7B9
:1072700047FF03B030BD00BF826802B9704710B548
:10728000044643690168006998470023A36010BD64
:107290000EB400B582B0039929B102AA04AB42F83A
:1072A000043D00F095F802B05DF804EB03B07047C0
:1072B0002DE9F84F1746B942884606461D46DDF8C7
:1072C00028B00B9A7DD30B464FF00109B3FBF7F3BF
:1072D0009F4209F10109F9D9A94538BFA94612F021
:1072E000010A02D1BBF1000F49D1B268012402E0CA
:1072F000013D07FB04F4012DFAD8B8FBF4F18F42ED
:10730000F7D9324D05E0B4FBF7F4A4B1B8FBF4F1C2
:10731000B268685C531CB36033689854B268736891
:107320009A4204FB1188EED33046FFF7A5FFB4FB69
:10733000F7F4002CEAD1BAF1000F16D0BBF1000F20
:1073400033D0CB4588BF20243ED9B3683268591C5E
:10735000B160D454B26873689A420BF1FF3B06D215
:10736000BBF1000F09D0D945EFD1BDE8F88F304609
:10737000FFF782FFBBF1000FF5D1BDE8F88F93074F
:107380001AD42024CB45B0D9B2683368511CB160FF
:107390009C54B26873689A420BF1FF3B07D2BBF171
:1073A000000FA3D0CB45F0D1A0E7BDE8F88F304661
:1073B000FFF762FFB268F2E7002D0CBF30242024F3
:1073C000E0E74FF0010987E7BDE8F88FB8BE02009B
:1073D000002900F06F822DE9F04F064685B09346F4
:1073E0000C460B780DE0B2683168501CB0608B54CD
:1073F000B26873689A4280F0D3802378002B00F043
:10740000BA800134002B00F0B680252BEBD14FF071
:107410000008234614F8012B2D2A00F0BB80302AE7
:1074200000F0BB802B2A00F0AD802A2A00F0BC803F
:10743000A2F13005E9B2092998BF013302D9A9E1C7
:10744000A1F130051C4613F8012BA2F1300005EB29
:107450008501092802EB4101F2D92E2A00F0B08003
:10746000002701E014F8012F02F0FB03682BF9D08C
:10747000253A532A7AD8DFE812F07A0179007900A8
:107480007900790079007900790079007900790034
:107490007900790079007900790079007900790024
:1074A0007900790079007900790079007900790014
:1074B0007900790079007900790079007900790004
:1074C00079007900790079007900790079007900F4
:1074D00079007900790079007900790079007900E4
:1074E0006A017900790079007900790079007900E2
:1074F0007900790079005501FC0079007900790064
:107500007900FC0079007900790079007900790030
:10751000540079007900CA007900BA007900790036
:107520006A01DBF80020131DCBF80030B368156842
:1075300031685A1CB2604FF03002CA54B3687268A6
:10754000934280F0A0813268581C7821B060D154F9
:10755000B26873689A4280F09281002208230192F7
:107560002946009310223046FFF7A2FE013423780B
:10757000002B7FF446AF337B002B40F0058105B034
:10758000BDE8F08F234614F8012B2D2A48F004089B
:107590007FF445AF48F001083BE748F0020838E7C0
:1075A0003046FFF769FE28E7DBF80020111DCBF815
:1075B000001015685A782E2A03F101047FF450AFA9
:1075C0006278A2F13003092B04F101044FF00007A7
:1075D0003FF64AAF07EB870702EB470714F8012F86
:1075E000A2F13003092BA7F13007F3D93CE7DBF810
:1075F00000301A1DCBF800201968CDF804803B46F6
:1076000000950A223046FFF753FE0134AFE7DBF85E
:1076100000301A1DCBF8002018F0010FD3F80090AD
:1076200040F0BB80B9F1000F00F04781484602F0FE
:10763000C5FB0746BD4240F2F180002D00F0EE8010
:107640004FF0200805E0BD4200F0E880002D00F07A
:10765000E580B3683268591CB16002F80380B268F3
:1076600073689A4205F1FF35EDD33046FFF704FE0B
:10767000E9E7DBF800301A1DCBF80020D3F80090C2
:1076800089EAE973A3EBE973092B4FF0010A09DDDD
:107690008F4A82FB0312DB17C3EBA203092B0AF10B
:1076A000010AF5DCBA4538BFBA462DB3B9F1000F6F
:1076B00002DB18F0040F00D0013D18F0020F40F07B
:1076C000F58018F0010F17D1002D00F0FE80AA45BB
:1076D00038BF202110D2B2683368501CB060995472
:1076E000B26873689A4205F1FF3580F0E880002D9A
:1076F00000F0EB80AA45EED1B9F1000FC0F2C880CE
:1077000018F0040F7BD108F00303022B00F09A80DD
:107710008DE820013B4649460A223046FFF7C8FD66
:10772000013424E7DBF80020131DCBF80030B368E8
:1077300031681278581CB060CA54B26873689A42B3
:10774000FFF414AF3046FFF797FD01340FE7DBF885
:1077500000301A1DCBF800201968CDF804803B4694
:10776000009510223046FFF7A3FD0134FFE6B36811
:107770003268591CB1604FF02501D154B26873686A
:107780009A42DFD20134F2E6304605B0BDE8F04F50
:10779000FFF772BD1C4600255FE64F46A7EB0908C0
:1077A00017F8013B8BB1B2683168501CB0608B5444
:1077B000B26873689A42F1D33046FFF75DFDA7EBDC
:1077C000090817F8013B002BEDD145457FF6CEAEF9
:1077D000202705E045453FF4C9AE002D3FF4C6AE75
:1077E000B3683268591CB160D754B26873689A4262
:1077F00005F1FF35EED33046FFF73EFDEAE7B2680C
:107800003368501C2B21B0609954B26873689A4257
:10781000FFF479AF3046FFF72FFD74E709F1FF3928
:1078200019F8013F002B3FF4A1AEB2683168501C3B
:10783000B0608B54B26873689A42F1D33046FFF758
:107840001BFDEDE7002F7FF463AF002D33D0AA4579
:10785000BFF45EAFB2683368511CB1604FF03001C5
:107860009954B26873689A4205F1FF3503D215B393
:10787000AA45EFD14CE73046FFF7FEFCF7E730466C
:10788000FFF7FAFC69E63046FFF7F6FCB3685AE604
:10789000B2683368501C2D21B0609954B268736887
:1078A0009A42C9F10009FFF42EAFB3E7002F3FF46D
:1078B00023AF06E7704700252AE74F46BAE6304671
:1078C0000391FFF7D9FC039911E7002514E700BFE6
:1078D00067666666FFF770BC2DE9F041B0F814806A
:1078E000CF1CA8F1040847440646B7FBF8F7FFF79A
:1078F0007FFC80B3FFB200250123013F0446A0F8BE
:10790000068006600571437128D0804609E06379DE
:10791000AF4203F101036371C8F8000006608046BE
:107920001CD03046FFF764FC01350028EFD16679A2
:10793000721E16D02346013082421B68FBD81F6896
:107940004EB1214600250C6801353846FFF778FC1A
:10795000AE422146F7D10020BDE8F0812046BDE8C7
:10796000F0812768EDE700BF04300121FFF7ECBB91
:10797000F8B5012104460430FFF7F4FBC0B200B1B2
:10798000F8BD6679721E12D02346013082421B6810
:10799000FBD81F68002EF3D0214600240D68013467
:1079A0003846FFF74DFCA6422946F7D1F8BD2768B7
:1079B000F2E700BF2DE9F843C68804330F46B3FB56
:1079C000F6F5904606FB1533044615B1013D2468D3
:1079D000FCD1F51A454528BF4546B8F1000F15D032
:1079E0004FF000090433E018A8EB05082A4607EB1E
:1079F000090102F095F94645A944246835464FF03F
:107A0000000328BF4546B8F1000FEBD1BDE8F8836D
:107A10002DE9F843C68804330F46B3FBF6F59046CC
:107A200006FB1531044615B1013D2468FCD1751AD9
:107A3000454528BF4546B8F1000F15D04FF0000965
:107A400004312144A8EB05082A4607EB090002F09F
:107A500067F94645A944246835464FF0000128BF20
:107A60004546B8F1000FEBD1BDE8F88301600B6823
:107A700043604A68934204BF00234360704700BFDD
:107A8000436843B1026891680B4443605268934273
:107A900004BF00234360704770B50A4A0A4B06785A
:107AA0004568047AC06853F8213052F8211084B038
:107AB00003908DF8006001958DF80840684698475E
:107AC00004B070BD305F0020385F002070B50A4AF6
:107AD0000A4B067845688468C06853F8213052F82C
:107AE000211084B003908DF8006001958DF8084056
:107AF0006846984704B070BD305F0020385F0020B2
:107B00002DE9F043DFF8748006784B7F08F80630E3
:107B10000D46074694460FCD89B06C460FC495E8D4
:107B20000F003D78DFF85890DFF858E018F805505E
:107B300049F826C084E80F004EF82600049665B187
:107B4000BCF1000F0B4A694607F1040008BF002290
:107B500000F0A4FB09B0BDE8F083BCF1000F064AB9
:107B6000694607F10C0008BF002200F027F909B0B0
:107B7000BDE8F083997A0200CD7A0200B06200205D
:107B8000385F0020305F0020014B1B68184700BFA2
:107B9000405F0020104B984201D00020704730B564
:107BA00083B002A8002300F8013D0D46FFF782FADA
:107BB0000A4B1C7934B19DF80700FFF7A1FA112098
:107BC00003B030BD01229DF807001D601A71FFF758
:107BD00097FA204603B030BD00200040405F0020EF
:107BE000034B984203D1034B00221A601A7170476D
:107BF00000200040405F002030B56E4AD2F80433C8
:107C000099058BB05BD5D2F82431002B57D00023D7
:107C1000C2F82431D2F8243103934FF40171664B3A
:107C20000398C2F8081393F8291009B9012151608B
:107C3000604902228DF81820D1F88024C1F88024F0
:107C40009869D96809920022089007919A6193E88F
:107C50001200DA6106A8A047564AD2F81C31C3B117
:107C6000554B186A5969884265D293F8280000F08C
:107C7000FF0400285FD1C2F81C41D2F81C11029108
:107C800002999C68186A196A205C01311962C2F86D
:107C90001C05484AD2F844317BB10021464BC2F85A
:107CA0004411D2F8440193F829100090009809B1CA
:107CB000012111609A69002A52D10BB030BD3D4AB2
:107CC000D2F804335B07C7D5D2F80831002BC3D0F4
:107CD000394B9969002952D00021C2F80811D2F815
:107CE000081104910499D868596AD2F818254254A9
:107CF0005A6A996901325A625A6A8A42ACD1DA697F
:107D0000002A45D193F8292012B92A4A012151604D
:107D1000284A4FF40171C2F80813596ADA680891C9
:107D20000024012007928DF8180093E806009C615A
:107D300006A8904790E71F4A0020C2F81C01D2F81D
:107D40001C210192019A0029A3D09A688DF818008D
:107D500008915861079206A893E80600904798E7B3
:107D60000022586AD9689A610122089007918DF81B
:107D7000182006A893E8060090470BB030BDC2F863
:107D80000811D2F8080105900598D2F81825B3E734
:107D9000DD685C6A18699A6101210022D860DA61A5
:107DA0005A628DF818100795089493E8060006A803
:107DB000904751E700200040485F00202DE9F04146
:107DC000734E05792C2303FB056382B093F82A30A8
:107DD0001BB1082002B0BDE8F0810F4604466D4992
:107DE00000689046FFF7D6FE18B1112002B0BDE83A
:107DF000F0813B68591C19D01F2B4FF001028ABF3C
:107E000065494FF0A04103F01F0302FA03F3C1F8E4
:107E100008353B681F2B86BF03F01F035E4A4FF0F7
:107E2000A04203F5E073032142F823107B685A1C3B
:107E30000BD01F2B86BF03F01F03574A4FF0A04201
:107E400003F5E073002142F823102368BA69C3F8F0
:107E50002425397D7B7D22680B43C2F86C3597E879
:107E600006002368C3F81425C3F80C153B7D012BCD
:107E700051D02C2303FB05F3F218C2F804803A69B1
:107E8000F250B8F1000F35D023683A7F434F0021FC
:107E9000C3F81C11D3F81C3100932368DDF800E00F
:107EA000C3F84411D3F84411236801910199C3F830
:107EB00004732168090B4BB2002B60DB03F16043B4
:107EC00003F561435201D2B283F800232268120BFA
:107ED00042F3C40323F0604323F0030303F1604340
:107EE00003F5614302F01F02012101FA02F2C3F817
:107EF00080211A602C23246803FB056300220425DB
:107F00000121C4F8005583F82A109A61DA6183F8D8
:107F100029205A615EE7BB68591C0BD01F2B86BF16
:107F200003F01F031C494FF0A04103F5E07300224A
:107F300041F82320FB685A1C1AD01F2B8ABF164910
:107F40004FF0A04103F01F03012202FA03F3C1F82E
:107F50000835FB681F2B88BF03F01F0303F5E07390
:107F60008CBF0D494FF0A041032241F82320FB684C
:107F70002268B968C2F80835C2F8101579E7084BCD
:107F800001F00F0152010B44D2B21A769EE700BFF6
:107F9000485F0020F97B02000003005080000200CF
:107FA000FCEC00E0F8B53A4D047902682C2303FBA1
:107FB000045300215B68C2F8001583B10368354A99
:107FC000C3F808230368344E1B0B5AB252092032FF
:107FD00003F01F03012101FA03F346F8223003687E
:107FE0004FF0FF3ED3F80C75D3F81465D3F808258D
:107FF000D3F81015C3F814E5C3F80CE5036877450A
:10800000C3F808E5C3F810E50CD01F2F86BF07F0B2
:108010001F07224B4FF0A04307F5E0774FF0020E09
:1080200043F827E0771C0BD01F2E86BF06F01F06F3
:108030001A4B4FF0A04306F5E076022743F826706E
:108040004E1C0BD01F2986BF01F01F01134B4FF0B0
:10805000A04301F5E071022643F82160531C0BD0C8
:108060001F2A86BF02F01F020C4B4FF0A04302F5FF
:10807000E072022143F822100068FFF7B1FD2C23C3
:1080800003FB0454002384F82A306360F8BD00BF6A
:10809000485F00208402020000E100E0000300507D
:1080A000F0B5304E05792C2303FB056385B05C6980
:1080B00014B1112005B0F0BD1C62996083F828400E
:1080C0005A610268C2F81C41D2F81C110268029180
:1080D0000121029F91600268D3F808E0C2F81C41B8
:1080E000D2F81C1101910199D3F820C0196A5F6878
:1080F0001EF80CC001311962C2F81CC517B1204628
:1081000005B0F0BD1A6A5C690168944203D819E0B1
:1081100093F82820F2B9D1F81C21002AF8D0C1F830
:108120001C71D1F81C210392039AD3F820C01A6A5B
:108130001EF80CC001321A62C1F81CC51A6AA242AC
:10814000E9D30168D1F81C31002BFBD00123CB60AF
:10815000002000E00F202C2303FB056300225A615E
:10816000A8E700BF485F002070B54A4BD3F8242130
:1081700088B0002A55D1D3F81011F1B9454BD3F886
:10818000442152B10020444AC3F84401D3F8444189
:1081900091690194019C002960D13E4BD3F82021C4
:1081A0004AB100213C4AC3F82011D3F8204150695C
:1081B0000094009C30BB08B070BDC3F81021D3F808
:1081C00010113548039103998169D3F83C458C42DD
:1081D000D4D1C569002D50D0D3F80012C66885618E
:1081E00021F02001C3F800120369C2610122016875
:1081F000C3608DF81840436805968DF8102004A8D8
:108200009847BBE7D3F84C0593688DF818008DF8B4
:1082100010105161059304A892E80A00984708B02D
:1082200070BD0021C3F82411D3F824210292022248
:108230008DF81020029AD3F88004174AC3F88004FE
:108240000790D3F83C05D3688DF818009161D1618F
:1082500005931168536804A898478FE7D3F83C4505
:108260008DF81840D3689061012405931168536814
:108270008DF8104004A898478FE7C36801688561AE
:10828000012205938DF8184043688DF8102004A84A
:10829000984773E700200040745F00202DE9F04309
:1082A0000479824EE7003B1906EB830385B093F80F
:1082B00020301BB1082005B0BDE8F0838946054693
:1082C0007B4900689046FFF765FC18B1112005B0A6
:1082D000BDE8F083D9F80030591C1AD01F2B4FF09D
:1082E00001028ABF73494FF0A04103F01F0302FA55
:1082F00003F3C1F80835D9F800301F2B86BF03F00F
:108300001F036C4A4FF0A04203F5E073032142F8CB
:108310002310D9F804305A1C0BD01F2B86BF03F052
:108320001F03644A4FF0A04203F5E073002142F8B6
:1083300023102B68D9F81820C3F8242599F81410B5
:1083400099F815202B680A43C3F86C252A68D9F8D8
:108350000030D9F80410C2F80C35C2F8141599F899
:108360001430012B61D03A199200B318C3F804807D
:10837000D9F81030B350B8F1000F47D0296899F8F8
:108380001C20DFF838E10023C1F81031D1F81011BA
:1083900000912968DDF800C0C1F82031D1F8201122
:1083A00001912968DDF804C0C1F82431D1F8241105
:1083B00002912968DDF808C0C1F84431D1F84411B0
:1083C0002B6803910399C3F804E32968090B4BB2A6
:1083D000002B63DB03F1604303F561435201D2B22A
:1083E00083F800232A68120B42F3C40323F060438E
:1083F00023F0030303F1604303F5614302F01F021E
:10840000012101FA02F2C3F880211A603C442A6873
:1084100006EB840400230125082184F82050C2F8CB
:108420000015A361E361636145E7D9F80830591C81
:108430000BD01F2B86BF03F01F031E494FF0A04136
:1084400003F5E073002241F82320D9F80C305A1CC0
:108450001CD01F2B8ABF17494FF0A04103F01F0308
:10846000012202FA03F3C1F80835D9F80C301F2BAA
:1084700088BF03F01F0303F5E0738CBF0D494FF075
:10848000A041032241F82320D9F80C302A68D9F8FA
:108490000810C2F80835C2F8101564E7064B01F061
:1084A0000F0152010B44D2B21A769BE7745F002091
:1084B0006981020000030050FCEC00E010030200A0
:1084C000F8B506793A4C0268F500AB1904EB830362
:1084D00000215B68C2F8001583B10368354AC3F810
:1084E00008230368344F1B0B5AB25209203203F0A1
:1084F0001F03012101FA03F347F8223003684FF00C
:10850000FF3CD3F80CE5D3F81475D3F80825D3F85D
:108510001015C3F80CC5C3F814C50368E645C3F8C5
:1085200008C5C3F810C50DD0BEF11F0F86BF0EF0F1
:108530001F0E224B4FF0A0430EF5E07E4FF0020CD1
:1085400043F82EC07B1C0CD01F2F86BF07F01F07DF
:108550001A4B4FF0A04307F5E0774FF0020E43F8B7
:1085600027E04F1C0BD01F2986BF01F01F01134BC2
:108570004FF0A04301F5E071022743F82170531C2E
:108580000BD01F2A86BF02F01F020C4B4FF0A043F6
:1085900002F5E072022143F82210354404EB850411
:1085A0000068FFF71DFB002384F820306360F8BDEE
:1085B000745F00201003020000E100E0000300509F
:1085C00001F06043B3F1005F01D010207047F0B5B7
:1085D0000579214EEF007C1906EB840483B06369B2
:1085E00013B1112003B0F0BDA1606261D0F800E0CA
:1085F000CEF82031DEF820C1D0F800E0CDF804C07C
:10860000DDF804C0CEF85831DEF858C1D0F800E0EB
:10861000CDF800C0DDF800C0CEF84415CEF84825EE
:1086200002680121916062680AB11846DAE70368BE
:1086300000E079B9D3F82021D3F85811002AF8D0F6
:10864000002914BF0F2000207B1906EB83030022B2
:108650005A61C7E70F20F7E7745F00202DE9F04F5C
:108660002DED068B85B04FF4004100AF0020FDF7E3
:10867000BFFF08B1FEF7D8FCDFF838A3BA4CDFED36
:10868000BB8A9FEDBB9A9FEDBB8AFDF737FFBAF817
:108690000000B949000440F00300FEF7B9F9BAF848
:1086A0000000B649000440F00500FEF7B1F9B44BF4
:1086B00043F0010B00237B6001F046FBB14BA3FBB1
:1086C0000023B14ADB0C02FB130307EE903AF8EEED
:1086D000E77A7B6887EEA8AA83F001037B606AEEE5
:1086E000099A002B40F0F080A84E4FF000081D467C
:1086F0006B0807EE903AF8EEE77A023567EEA97A52
:10870000083687EE887A17EE100A02F0B5FF41ECC2
:10871000100B01F0F1FB51EC100B03F0C3FA802DAC
:1087200046F8048C46F8080CE2D101230022974950
:10873000974800F0F9FD95489649402200F06EFEFA
:10874000BAF80000944B9549FCEECA7A0004C7EDD4
:10875000007A40F005003A88FEF74EFAC7F800D0DC
:1087600007F10C0392B007F108024021894800F09C
:1087700043FA6E460DF1FF391425F3EE049A013DDC
:1087800007EE905AF8EEE76AD7ED027A814B86EE53
:10879000A97A4A4627EE277AF3EC017AB4EEE77A13
:1087A000F1EE10FA4CBF7C212021A34202F8011FF8
:1087B000F2D14FF00003BAF8008086F8403030461E
:1087C000FDF782FF4FEA084848F005080246744961
:1087D0004046FEF797F9FDF7EDFF0028FBD1002D8D
:1087E000CDD192B06B46594211F00301684664D076
:1087F0002D2301298DF8003000F0B38003298DF876
:10880000013040F0AB808DF802303D260D46C1F1BD
:10881000400C4FF03C0E4FF00F0842184FF02D3334
:10882000B8F1100F435053609360D36013615361EC
:108830009361D361136253629362D3621363536390
:10884000936300D1D363F4457544A6EB0E060BD0B9
:108850002D23012E435505F1010205D0022E83542C
:1088600005F1020500D043550023BAF8005080F806
:108870004030FDF729FF2D0445F005050246484923
:108880002846FEF73FF9D7F800D0FDF793FF002800
:10889000FBD1F1EE103A23F09F03E1EE103AF1EE36
:1088A000103A404B4022C3F884214FF47A754FF4BC
:1088B0007A40D847013DFAD1FEE64FF0400EF4462B
:1088C00076464FF01008A8E7374E4FF000094FF0FA
:1088D000000864254FEA580307EE903AF8EEE77A6D
:1088E00008F1020867EEA97A87EE887A17EE100A77
:1088F00002F0C2FE41EC100B01F0FEFA51EC100B3D
:1089000003F0D0F946F8040C01F01EFA274B56ED9F
:10891000016A83FB0032C317C3EB621305FB130329
:1089200007EE903AF8EEE77AB8F1800F87EEA87A72
:1089300066EE877A46ED017A46F8089BCAD1012394
:1089400000221249124800F0EFFC10481149402261
:1089500000F064FDBAF80000154BF4E63E2602254F
:1089600055E73F260D4652E7986200200000C842B6
:10897000DB0FC94000442C47E8BE020004BF0200E0
:10898000E0BE020083DE1B4380841E00985F00204F
:10899000A0BF02009861002070BF020044BF020027
:1089A00064BF020000E100E09C5F00201F85EB51E6
:1089B0006CBF0200C859002010B44FF080414FF046
:1089C00080520020C1F80C015E4BC1F81001C1F8C3
:1089D0003805D2F80414C3F82015D2F80814C3F8E7
:1089E0002415D2F80C14C3F82815D2F81014C3F8C3
:1089F0002C15D2F81414C3F83015D2F81814C3F893
:108A00003415D2F81C14C3F84015D2F82014C3F85A
:108A10004415D2F82414C3F84815D2F82814C3F822
:108A20004C15D2F82C14C3F85015D2F83014C3F8F2
:108A30005415D2F83414C3F86015D2F83814C3F8BA
:108A40006415D2F83C04C3F86805D2F840043E49E6
:108A5000C3F86C050968D2F84424C3F870250829C6
:108A600024D04FF08043D3F80024D20744BF6FF0E6
:108A70000102C3F80024354AD2F8883043F4700369
:108A8000C2F88830BFF34F8FBFF36F8F4FF01023C2
:108A9000D3F80022002A23DBD3F80432002B1FDB9B
:108AA0002B4B2C4A1A605DF8044B70472A4B1B680D
:108AB000002BD6D129482A4A2A4C04602A492B4B3C
:108AC000FB20C2F818050A681B68294822F00F022B
:108AD00003F00F0313434FF400720B600260C0E712
:108AE000244B0122C3F80425D3F80024002AFBD02C
:108AF0004FF0102312221F49C3F80022D1F800348E
:108B0000002BFBD04FF0102212211A4BC2F8041296
:108B1000D3F80024002AFBD000221649C3F804250C
:108B2000D1F80034002BFBD0BFF34F8F0749124B15
:108B3000CA6802F4E0621343CB60BFF34F8F00BFFB
:108B4000FDE700BF00C000403001001000ED00E074
:108B5000D85700200090D003340100108C560040FC
:108B600000F0004048810300E40E0040580200106D
:108B70004096024000E001400400FA0500B583B0D1
:108B800068460849FEF772FF019B43B158681A68AE
:108B900090476846FEF774FF019B002BF6D103B0A7
:108BA0005DF804FB74BF02004BDF704710B5114C39
:108BB00084B001A8FFF7F8FFA8B9214602A8FEF784
:108BC00055FF039B002BF4D01A6859680198904711
:108BD00002A8FEF755FF039B002BF5D101A8FFF774
:108BE000E3FF0028E9D0052801D0FEF71DFA04B004
:108BF00010BD00BF88BF02002DE9F0414F1E5FEAA3
:108C0000970800F1040ED0ED007A58D01430C44615
:108C10000426002410ED046A50ED036A10ED027A78
:108C200050ED015AB4EEE76AF1EE10FAC8BFF0EE6B
:108C3000467AA6F10305F4EEE67AC8BF2C46F1EEBB
:108C400010FA48BFF0EE667AA6F10205F4EEC77A94
:108C500048BF2C46F1EE10FA48BFF0EE477A06F115
:108C6000FF35F4EEE57A48BF2C46F1EE10FA48BF26
:108C7000344648BFF0EE657ABCF1010C06F10406FB
:108C800000F11000C6D10EEB081E17F0030018D03B
:108C9000081ABEEC017AB4EEE77AF1EE10FAC8BF1A
:108CA000044600F10100D8BFB0EE677A8842F0EECA
:108CB000477AEED182ED007A1C60BDE8F08144462F
:108CC000E3E7B0EE677AF5E72DE9F0412DED088B8B
:108CD000B0F800E042684FEA5E0C01EB8E085FEAF4
:108CE000DE0E07464FEA8C0300F0AF801033CE183B
:108CF0001032434401F1100508F1100454ED041A38
:108D000013ED044A53ED033A53ED025A13ED015AA1
:108D100054ED036A14ED020A16ED042A56ED032AF7
:108D200015ED036A15ED017A15ED043A54ED017A5B
:108D300056ED020A16ED011A55ED024A73EE21BAFC
:108D400036EE26BA37EE27AA72EE049A32EEA39ACE
:108D500031EE058A74EE80AA70EEA58A45ED04BA5C
:108D600005ED03BA45ED02AA05ED01AA06ED018A5B
:108D700046ED049A06ED039A46ED028A76EE666A9F
:108D800073EEE23A12ED036A52ED042A33EE613AD1
:108D900034EE424A26EE868A24EE062A63EE221A32
:108DA00024EE224A23EE063A66EEA26A23EE866A93
:108DB00063EEA23A36EE046A76EEC36A72EE633A66
:108DC00071EE882A44ED036A44ED042A43ED043A27
:108DD00003ED036A77EE677A75EEE06A12ED017AC9
:108DE00052ED025A35EE416A74EEC04A67EE873A98
:108DF00026EE875A24EEA54A67EEA57A64EE874AE6
:108E000066EEA56A26EE077A26EE256A77EEE47A04
:108E100074EE235A35EE466A37EE267ABEF1010E1D
:108E200044ED025A05F1100544ED017A06F11006F1
:108E300003ED026A03ED017A02F1100204F110045D
:108E400003F110037FF45AAF7A681FFA8CF40846D6
:108E50000223214600F02AFCBDEC088B4046214647
:108E60007A680223BDE8F04100F020BC2DE9F04F04
:108E70002DED0A8B028891ED006A8FB00F465208E3
:108E800093000C900391416897ED017A384618449D
:108E9000064609901844D0ED006AD6ED003AD6EDAA
:108EA000012AD0ED017A0A9076EE265A044625462C
:108EB0001C4494ED004A94ED015A019475EEA34AC6
:108EC000304674EE244A3E4614EE90EA76EE666A28
:108ED00046F808EB37EE276AD0ED014A049677EEA4
:108EE000677A019E32EEA63A96ED012A36EE247A92
:108EF00075EEE35A77EEE34A36EE626A77EEA37ACE
:108F000076EEE26A73EE453A044636EE456A75EE51
:108F1000266AA34637EE027A34EE845A13EE908A1C
:108F2000A44675EEC45A87ED017A4BF8088BACF174
:108F300004078CED015A01F1080C2C46CDF814C041
:108F400015EE90CA44F808CB079401F1100485EDA2
:108F5000016A520802942C4601F118050B92B246A0
:108F6000069577EEC47A023A16EE905AB646304627
:108F700052084AF8085BA0F10406CEED017A089287
:108F800000F030819146039ADDF80880CDF834A0D6
:108F9000083B02F1100501F1200CA4F10C0201F1D3
:108FA000300E334410345046594655ED023A14ED14
:108FB000025A91ED007AD0ED007A15ED014A54ED98
:108FC000015AD0ED016A91ED016A33EE858A34EEE3
:108FD000250A78EE074A74EE655A77EEA44A33EE16
:108FE000C55A45ED024AD1ED014A90ED014A70EEB5
:108FF000244A76EE05AA74EE844A35EEC7AA45EDFA
:10900000014AD6ED001AD7ED000A92ED024AD3EDDF
:10901000023A93ED012A16ED011AD2ED012A57ED1D
:10902000019A70EEA14A39EE813A74EE848A70EEAC
:10903000E11A73EEA88A7AEEE6AA18EE90AA47F82B
:1090400008A9D2ED018A93ED019A73EE288A3AEECF
:1090500027AA78EE898A74EE630AC7ED018A18EDB3
:1090600002BA58ED018A39EEC11A6AEE28BA2AEE20
:109070008BCA71EEE29A30EE819A79EE829A3CEEDA
:109080002BCA6AEEA8AA69EEA8BA2AEE0BAA69EE64
:109090008B9A69EE288A29EE0BBA1CEE10AA78EE9C
:1090A000A98A41F808AB3AEE6AAA3BEECBBA34EE95
:1090B000C44A33EE623A01ED01AAC2ED018A82EDA3
:1090C00002BA5CED044A74EE633A38EE478A1CED4E
:1090D000034A30EE460A33EE423A38EE678A30EE03
:1090E000660A23EEE49A63EE048A28EE24AA60EE70
:1090F000049A28EE048A20EE240A63EE843A39EEBC
:10910000684A7AEE299A14EE10AA30EE480A63EE05
:10911000244A44ED029A73EEE43A04ED010A46F85B
:1091200008A935EE466A35EE877AC6ED013A76EE45
:10913000866A77EE677A1EED056A1EED067A67EE9F
:10914000865A26EE875A72EE622A30EEC11A72EE05
:10915000E12A75EE255A62EE860A66EE866A67EEA9
:10916000877A21EE066A62EE872A21EE071A15EE4B
:1091700090AA77EEE67A40F808AB30EEC11A76EEA8
:10918000222AB9F1010940ED017A05F1080583EDC4
:10919000021AC3ED012A08F10808A2F108020CF135
:1091A000100C04F108040EF1180EA3F108037FF46B
:1091B000FCAE08990298DDF834A0CB0001EB410227
:1091C00000EB011102910499194404910599194485
:1091D000059107999B4419449A44069B079103EB18
:1091E000C2030693049A0798D2ED003A90ED004A24
:1091F000DBED007A9AED003AD2ED014A90ED017A6A
:109200009BED012ADAED015ABDF82C400C9E73EE5D
:10921000846A34EE876A36EEA75A34EEC77A33EEA4
:10922000055A33EEC44A82ED005A9BED015ADAED3D
:10923000014A36EE055A72EE043A35EE245A77EEBC
:10924000674A82ED015A059A34EE835AD2ED001A2C
:10925000D2ED012A029A73EEE53A36EE426A63EEE7
:10926000A14A63EEA23A65EE222A25EE215A74EE57
:10927000A22A35EE635A76EEE76ACBED002A8BED33
:10928000015AD2ED013A92ED005A069A76EEC36A7F
:1092900036EE656A66EE854A26EE055A66EEA36AE4
:1092A00026EE236A75EE666A34EE866A34EE424A2A
:1092B00037EE277AC0ED016A80ED006A92ED016A0F
:1092C000039877EE437A75EE845A92ED007A65EE54
:1092D000876A27EE877A65EE865A67EE867A77EE9A
:1092E000655A76EEA77ACAED015ACAED007A72681D
:1092F0002146042300F0DAF9099872682146042314
:1093000000F0D4F90A9872682146042300F0CEF9DF
:1093100001987268214604230FB0BDEC0A8BBDE8AA
:10932000F04F00F0C3B900BF2DE9F041012A064615
:1093300017460C469846058854D0B5F5807F4CD02A
:1093400016D9B5F5806F1AD05CD9B5F5006F44D049
:10935000B5F5805F05D1204629467268012300F0EB
:10936000A5F9B8F1000F11D1012F16D0BDE8F08199
:10937000202D32D04AD9402DEDD0802DF1D130466C
:109380002146FFF7A1FCB8F1000FEDD02046B189CE
:10939000B26800F02BF9012FE8D107EE905AF8EEF1
:1093A000676AF7EE007AC7EEA66A002DDED004F1F8
:1093B0000801002301339D4201F1080111ED047AF7
:1093C00051ED037A27EE267A67EEE67A01ED047A0C
:1093D00041ED037AEED1BDE8F08130462146FFF73A
:1093E00045FDBEE7ADB101F10C03002253ED027A59
:1093F0000132F1EE677A954243ED027A03F10803F8
:10940000F4D19AE7B5F5007FA5D0AAE7102DB6D024
:10941000A7E7B5F5807F94D8AAE700BF2DE9F04112
:109420005FEA920884B07FD0002700F1200401F1A8
:10943000100546465AE0B1EEE70AB4EE400AF1EEF6
:1094400010FA40F0A48005ED040A54ED067A14EDFC
:10945000050A67EEA77A20EE000A77EE807AF5EE2D
:10946000C07AF1EE10FAC0F28F80B1EEE70AB4EEE6
:10947000400AF1EE10FA40F0AF8005ED030A54ED1A
:10948000047A14ED030A67EEA77A20EE000A77EE5D
:10949000807AF5EEC07AF1EE10FA72DBB1EEE70AEF
:1094A000B4EE400AF1EE10FA40F08C8005ED020AAD
:1094B00054ED027A14ED010A67EEA77A20EE000A55
:1094C00077EE807AF5EEC07AF1EE10FA20DBB1EE9D
:1094D000E70AB4EE400AF1EE10FA69D1013E05ED5B
:1094E000010A04F1200405F1100519D054ED087AA1
:1094F00014ED070A67EEA77A20EE000A77EE807A6D
:10950000F5EEC07AF1EE10FA95DA45F8107C9CE79A
:10951000013E45F8047C04F1200405F11005E5D175
:1095200000EB481001EB081112F0030526D00026CD
:1095300000F108040CE0B1EEE70AB4EE400AF1EEE7
:1095400010FA2ED1013D01ED010A04F1080415D0F5
:1095500054ED027A14ED010A67EEA77A20EE000AB4
:10956000043177EE807AF5EEC07AF1EE10FAE2DAA5
:10957000013D41F8046C04F10804E9D104B0BDE8F0
:10958000F08145F8087C93E745F80C7C77E7B0EE6E
:10959000670A03920291019000F00EFD01A807C82E
:1095A00051E7B0EE670A019100F006FD0199C9E7A5
:1095B000B0EE670A03920291019000F0FDFC01A851
:1095C00007C88BE7B0EE670A03920291019000F0A2
:1095D000F3FC01A807C869E7B0EE670A039202919D
:1095E000019000F0E9FC01A807C846E74B1C012BDD
:1095F00098BF70472DE9F003911C9B08B1F80480D7
:10960000B1F802900A8831F802CC804481440244C7
:109610008444D9F80070D8F800601568DCF8004080
:10962000C9F80060C8F80070CCF800501460D9F890
:109630000470D8F804605568DCF80440C9F8046088
:10964000C8F80470CCF8045054600831013BD5D1FF
:10965000BDE8F00370474B1C012B98BF70472DE904
:10966000F003911C9B08B1F80480B1F802900A88BD
:1096700031F802CC00EB580800EB590900EB52021C
:1096800000EB5C0CD9F80070D8F800601568DCF8C5
:109690000040C9F80060C8F80070CCF800501460B1
:1096A0000831013BDFD1BDE8F00370472DE9F04FF1
:1096B0002DED108B9DB01C469FEDC8BA1A92031D6C
:1096C000824689468B461B9300949E464FEADB03F5
:1096D0005A00D618F51803925A19D018DF00191835
:1096E0003C46019757440C930AEBC2021B010AEB5C
:1096F000C10107EB040C009C02930AEBC6060AEBBF
:10970000C505043204310AEBC0004FEACB034FF029
:109710000008DCED007AD7ED006AD6ED003A5EED88
:1097200001AAD5ED004A90ED002A12ED017A51ED23
:10973000010A77EE828A33EEA04A76EE871A3AEE75
:10974000A43A31EE846A33EE285A36EEC77A75EEC3
:10975000066A35EE465A4EED016A85ED005A96EDE1
:10976000011AD7ED015A92ED00AA91ED006A9EED23
:10977000009A95ED015ADCED016AD0ED019A73EE85
:10978000E00A71EE462A75EECA3A37EE600A33EE09
:10979000A28A37EE207A73EEE22A37EEC22A79EEF9
:1097A000053A60EE0B0A39EE455A7AEEE44A36EE97
:1097B000A99A75EE8A5A31EE066A76EEE96A28EEC3
:1097C0000B8A62EE8B2A67EE0B7A33EE683A36EE3E
:1097D000880A75EE868A36EEC87A71EEC41A75EE7E
:1097E000626A33EEC94A35EEC66A33EE891A74EE00
:1097F000E05A74EEA03A75EE224A32EE275A72EE23
:10980000677A33EE068A75EE872A31EE289A33EEB0
:10981000466A74EE610A33EE802A35EEC77A34EE7A
:10982000C53A76EEE75A31EE681A34EE214A73EE05
:10983000C03A74EE854A76EEA76AD844C1458EEDEB
:10984000009A85ED011A9E448CED008A1D4480ED3E
:10985000006ACCED010A80ED014A9C4487ED002AA4
:10986000184441ED013A42ED012A86ED007A87ED78
:10987000013AC1ED004A1F44C2ED005A1944C6ED39
:10988000016A1A441E443FF644AF0C99072920464A
:1098900040F2E98104EB44073E193519039C00901E
:1098A0002246013202EB81020099281800EB010EDA
:1098B0000C990A4404EB010C4FEACE040AEBC20EE9
:1098C000009A0F94ED001195D5000D95019D083576
:1098D0001695029D0835140117950F9A1A9D0E943E
:1098E000C0001090AA180792109A0C9CAA1808920F
:1098F000119AAA18099201EB81010EF104020A9251
:10990000C9000D9A0C31F6004FEACC001491A91849
:109910000E9A1296FF00AE1908304FEA0C1C0696FC
:109920001990AA186401EE190CF10C001397049613
:1099300015900391059204F1080218924FF0010866
:10994000002202F108010F460B9118998E18169902
:109950008D1817998C1819998818149901EB020C15
:1099600015990A440399D1ED00FA059991ED00FA91
:109970000499D1ED00EA069991ED00EA0999D1ED3B
:1099800000DA089991ED00DA0799D1ED00CA039940
:1099900091ED01CA0599D1ED01BA0499D1ED01AA61
:1099A000069991ED01AA0999D1ED017A0899CDEDB9
:1099B000007AD1ED017A0799CDED017AD1ED017AE6
:1099C0000AEB070E0A9FCDED027A0CEB0A01564412
:1099D0005544544450445244C44601E0F304353FD6
:1099E00096ED005A52ED019A11ED016AD0ED007A20
:1099F00017ED017ADEED003A94ED003A95ED002A7C
:109A00009EED010A33EE858A32EE061A33EE294ABC
:109A100077EE874A78EE041A71EE246A32EE462A0F
:109A200031EEA66A77EEC77A8EED006AD0ED018A34
:109A300095ED019AD1ED002A97ED007AD4ED010A57
:109A400096ED016AD2ED005A73EEC53A33EE693AEB
:109A500039EE625A78EEC79A38EE444A38EE877A81
:109A600030EEA58A79EE222A75EE698A32EE279ABF
:109A700035EE295A72EE677A30EE062A69EE0B9AB5
:109A800070EEE55A32EE089A68EE8B8A32EE482A7A
:109A900071EE644A25EE0B5A32EE871A67EE8B7A26
:109AA00072EEC72A30EE466A73EE290A36EE280AAD
:109AB00033EE693A32EE647A73EEA79A36EE686A4C
:109AC00073EEE77A75EE858A74EE223A35EEC55A62
:109AD00071EEE66A79EE411A39EEA88A76EE435ABB
:109AE00074EE622A72EE244A30EE604A79EEE88A19
:109AF00030EE200A77EE859A36EE036A77EEC57A65
:109B00002EEE212A2EEE265A6FEE230A2AEE213A55
:109B100039EE011A6AEE266A2BEE879A6BEEA33AAB
:109B20002FEE077A6FEE841A35EE033A72EE666A0C
:109B30002CEE045A2FEE882A9DED024A8EED011A72
:109B400077EE633A2CEE088A9DED017A86ED003AB5
:109B500030EE899A32EE052A6DEE220A31EEC88A7D
:109B600067EE222A64EE001A27EE247A2CEEA85A19
:109B70006DEE244A64EE288A9DED004AC6ED016A26
:109B800074EEE22A6DEEA94A64EE299A24EE254A83
:109B900030EE877A74EE844A6EEEA70A2AEE864A81
:109BA0002CEE800A6DEEA55A6AEEA77A2EEE866A32
:109BB00075EE211A30EE680A75EEE99A70EE840AA5
:109BC00036EE676ADC44E14584ED009AC4ED013A63
:109BD0009E4402ED017AC2ED002A1E4485ED002A62
:109BE00085ED018A1C4447ED011A87ED000A1A44ED
:109BF00041ED014AC1ED009A1D44C0ED000A1F4429
:109C000080ED016A194418443FF6EAAE039A0D99B3
:109C10000A4403920E99059A0A4405921399049AEC
:109C20000A4404921299069A0A4406921199099AD2
:109C30000A4409921099089A0A4408920F99079ABF
:109C40000A4407920C990A9A08F1010808328845DB
:109C50000A920B9A7FF475AEBDF834300093C34678
:109C6000DDF86CE032E51DB0BDEC108BBDE8F08F87
:109C700008B5074B044613B10021AFF30080054B34
:109C80001868836A03B19847204600F033F900BF93
:109C90000000000020C2020070B50D4E0D4CA41B48
:109CA000A4100025A54209D10B4E0C4C02F050F82F
:109CB000A41BA4100025A54205D170BD56F825307F
:109CC00098470135EEE756F8253098470135F2E719
:109CD000B0590020B0590020B0590020B4590020DC
:109CE000044B054A1B681B6A002B08BF1346D3F8B8
:109CF000EC007047DC5700204058002082B001B9CA
:109D000001A942B14BB113780B601278101C18BF37
:109D1000012002B070471046FBE76FF00100F8E742
:109D200010B5431E0A44914200D110BD11F8014BF9
:109D300003F8014FF7E702440346934200D170470E
:109D400003F8011BF9E70000194B10B51C68A36B61
:109D5000D3B9182000F048F843F20E33A063038013
:109D60004AF6CD33438041F2342383804EF26D6353
:109D7000C3804DF6EC630381052343810B2383816C
:109D800001220023C0E90423A16B0A480A694B6938
:109D9000094C504304FB0300A2FB0423013203449B
:109DA00043F10003C1E9042323F0004010BD00BFCC
:109DB000DC5700202DF451582D7F954C034613F8A5
:109DC000012B002AFBD1181A0138704749B1FF2A2C
:109DD00085BF8A2303600A704FF0FF3098BF0120CF
:109DE0007047084670470000024B0146186800F0B3
:109DF00003B800BFDC57002070B5CD1C25F003056B
:109E000008350C2D38BF0C25002D064601DBA94274
:109E100003D90C233360002070BD00F05BF8234AA7
:109E20001468214691B9224C23681BB9304600F0D2
:109E300041F820602946304600F03CF8431C26D10A
:109E40000C233360304600F046F8E4E70B685B1BF8
:109E50001AD40B2B0FD90B60CD50CC18304600F024
:109E60003AF804F10B00231D20F00700C31A1BD0A1
:109E70005A42E25070BD8C420DBF63684B6863600C
:109E8000136018BF0C46E9E70C464968CAE7C41CD2
:109E900024F00304A04205D0211A304600F00AF84D
:109EA0000130CDD02560D9E770BD00BF9862002099
:109EB0009C62002038B5064C002305460846236006
:109EC00000F00AF8431C02D1236803B12B6038BDAF
:109ED000B462002070477047044A05491368002B9C
:109EE00008BF0B461844106018467047A062002057
:109EF000B8620020FEE700BF00B551EC100B2C4A01
:109F000021F00043934285B027DD2A4A934209DDC0
:109F100010EE102A0B4601F04FFA41EC100B05B081
:109F20005DF804FB684600F09FF800F0030001288C
:109F300027D002281DD068B39DED021B9DED000BBC
:109F400000F0BEFA53EC102B10EE100A03F10041A2
:109F500041EC100B05B05DF804FB00209FED121BD7
:109F600001F02AF851EC100B41EC100B05B05DF834
:109F700004FB01209DED021B9DED000B01F01CF880
:109F8000E0E79DED021B9DED000B00F099FA51EC0E
:109F9000100BC2E701209DED021B9DED000B01F0AF
:109FA0000BF851EC100BB8E70000000000000000B7
:109FB000FB21E93FFFFFEF7F10B52DED028B8AB04B
:109FC000B0EE408A00F076FA244B93F90040631C0F
:109FD00009D0B4EE488AF1EE10FA04D6B5EEC08A84
:109FE000F1EE10FA03D40AB0BDEC028B10BD0123D0
:109FF0001B4A009318EE100A00230192089301F007
:10A000003BFB0022CDE90401CDE902010023BCB1F4
:10A010001046194601F0AEFC022CCDE9060111D123
:10A0200001F090FE21230360089B8BB9DDE9060156
:10A0300001F038FE00EE100A0AB0BDEC028B10BD34
:10A04000CDE90623684601F01BF90028ECD1E7E7CB
:10A0500001F078FE089B0360E8E700BFAC590020E0
:10A0600030C30200000000002DE9F04753EC102B34
:10A070009D4923F000478F4290B040F391809B4967
:10A080008F421C46824629DC002C194610EE100A2D
:10A090008BA3D3E9002340F3B18101F08DF9944BF8
:10A0A0009F4204460D4600F0918087A3D3E9002328
:10A0B00001F082F902460B46CAE9002320462946F0
:10A0C00001F07AF980A3D3E9002301F075F90125A5
:10A0D000CAE90201284610B0BDE8F08785498F42E1
:10A0E00040F3918084498F4265DC3D15A5F2164509
:10A0F000A7EB0551104616460F4601F0ABFD01F0E7
:10A10000A9FA8046894642464B4630463946CDE953
:10A110000A8901F051F90022784B01F001FB8946D0
:10A12000804601F097FD01F095FA06460F4632464B
:10A130003B4640464946CDE90C6701F03DF9002217
:10A140006E4B01F0EDFA00220023CDE90E0101F083
:10A150004FFD002800F07081002330463946002270
:10A1600001F046FD002814BF01230223644A019236
:10A1700002212A4600910AA8514600F0E5FA002C77
:10A18000054614DADAF80420DAF80C3002F100425D
:10A1900003F100434542CAF80420CAF80C3006E037
:10A1A00080ED000B00250024C0E90245002528466B
:10A1B00010B0BDE8F08710EE100A194601F0FCF867
:10A1C0000025CAE90201CAE90001F0E740A3D3E98A
:10A1D000002301F0F1F840A3D3E900230D46044623
:10A1E00001F0EAF802460B46CAE900232946204658
:10A1F00001F0E2F838A3D3E9002301F0DDF80125EE
:10A20000CAE90201D3E700F0A1FF59EC108B10EE70
:10A21000100A33A3D3E90023494601F081FA002252
:10A22000384B01F0CBF801F015FD054601F012FAAC
:10A2300023A3D3E90023CDE9060101F071FA024618
:10A240000B464046494601F0B7F81FA3D3E9002367
:10A25000CDE90201DDE9060101F062FA1F2D804619
:10A260008946CDE9048951DC274B6A1E53F8223018
:10A270009F424BD002460B46DDE9020101F09CF8FB
:10A2800080468946CAE9008942464B46DDE902011B
:10A2900001F092F8DDE9042301F08EF8002CCAE900
:10A2A000020184DA09F1004401F100436D42CAF869
:10A2B0000080CAF80440CAF80800CAF80C3076E7F3
:10A2C00000004054FB21F93F3163621A61B4D03D74
:10A2D0000000601A61B4D03D7370032E8A19A33B4D
:10A2E00083C8C96D305FE43FFB21E93F7BD9024061
:10A2F000FB21F93FFB213941FFFFEF7F0000704157
:10A30000B8C302000000E03F38C30200DDE90423C7
:10A31000DDE9020101F050F83F15C1F30A53FB1AC1
:10A3200080468946102BCAE90089ADDD58A3D3E9E0
:10A330000023DDE9060101F0F3F980468946024673
:10A340000B46DDE9020101F037F802460B46DDE974
:10A350000201CDE9082301F02FF842464B4601F0F7
:10A360002BF84DA3D3E9002380468946DDE9060199
:10A3700001F0D6F942464B4601F01EF80B46CDE9F6
:10A3800004010246DDE9080101F016F8C1F30A53A1
:10A39000FF1A80468946312FCAE900896CDD41A346
:10A3A000D3E90023DDE9060101F0BAF9DDE9088906
:10A3B00006460F4602460B464046494600F0FCFF63
:10A3C00002460B4640464946CDE9022300F0F4FF21
:10A3D00032463B4600F0F0FF34A3D3E900230646A3
:10A3E0000F46DDE9060101F09BF932463B4600F0DD
:10A3F000E3FF02460B46CDE904233DE700F0DEFF14
:10A40000274B9F4204460D4618D01FA3D3E90023D3
:10A4100000F0D4FF02460B46CAE900232946204635
:10A4200000F0CAFF18A3D3E9002300F0C7FF4FF0E4
:10A43000FF35CAE90201BAE6032397E614A3D3E97C
:10A44000002300F0BBFF14A3D3E900230D4604460C
:10A4500000F0B4FF02460B46CAE900232946204615
:10A4600000F0AAFF0CA3D3E9002300F0A7FF4FF0F0
:10A47000FF35CAE902019AE69DED087B8DED027B6E
:10A4800002E700BFAFF300803163621A61B4D03DD0
:10A490000000601A61B4D03D7370032E8A19A33B8B
:10A4A000FB21F93F0000002E8A19A33BC14920255A
:10A4B0009A837B39B1EEC00A704700BF00000000EC
:10A4C0002DE9F04F57EC106B2DED028BB0EE418A69
:10A4D000F0EE618A27F00049B9F1795F83B072DA52
:10A4E00010EE100A394601F0B5FB002800F0F680A6
:10A4F00032463B463046394601F012F97CA3D3E997
:10A50000002304460D4601F00BF97BA3D3E9002399
:10A5100000F054FF22462B4601F002F978A3D3E95C
:10A52000002300F049FF22462B4601F0F9F876A3FC
:10A53000D3E9002300F042FF22462B4601F0F0F859
:10A5400073A3D3E9002300F037FF22462B4601F026
:10A55000E7F871A3D3E9002300F030FF22462B4631
:10A5600001F0DEF882468B460022714B20462946D8
:10A5700001F0D6F85246804689465B462046294679
:10A5800001F0CEF853EC182B04460D463046394600
:10A5900001F0C6F802460B462046294600F00CFFA3
:10A5A00002460B464046494600F006FF02460B466F
:10A5B0000020604900F000FF41EC100B03B0BDEC3F
:10A5C000028BBDE8F08F10EE102A10EE100A3B4609
:10A5D000394601F0A5F846A3D3E9002304460D4609
:10A5E00001F09EF844A3D3E9002300F0E7FE2246E1
:10A5F0002B4601F095F842A3D3E9002300F0DCFEDE
:10A6000022462B4601F08CF83FA3D3E9002300F04B
:10A61000D5FE22462B4601F083F83DA3D3E9002363
:10A6200000F0CAFE22462B4601F07AF83AA3D3E99D
:10A63000002300F0C3FE2B46224601F071F83E4B8A
:10A64000994582468B468FDD3C4B99453DDC002287
:10A65000A9F50013002037499046994600F0ACFE5A
:10A66000CDE900010022324B2046294601F058F87E
:10A6700042464B4600F0A0FE5246804689465B4665
:10A680002046294601F04CF853EC182B04460D46A1
:10A690003046394601F044F802460B46204629462A
:10A6A00000F08AFE02460B464046494600F084FE12
:10A6B00002460B46DDE9000100F07EFE41EC100B86
:10A6C00003B0BDEC028BBDE8F08F9FED157B4FF022
:10A6D00000088DED007BDFF86890C3E79FED120B5B
:10A6E00003B0BDEC028BBDE8F08F00BFAFF300807C
:10A6F000D43888BEE9FAA8BDC4B1B4BD9EEE213EEF
:10A70000AD529C804F7E923E9015CB19A001FA3E2F
:10A710007751C1166CC1563F4C5555555555A53FFF
:10A72000000000000000E73F000000000000F03FD4
:10A730000000E03F0000F03F3233D33F0000E93F2C
:10A740000000D23F000000002DE9F04FADF51B7D69
:10A75000A34CA49EA34D54F8264007942646D41E2D
:10A7600085FB0475E417C4EBA50424EAE4741D46D4
:10A770000A93631CA3EB8303013D02EBC30306931F
:10A780002B460B940395651BF418049008911AD47A
:10A790002C440026002701340DF18808DDF894923E
:10A7A00008E059F8250000F055FF0135A542E8E81A
:10A7B000020108D0002DF4DA013530463946A542B1
:10A7C000E8E80201F6D1079B002BC0F2EB83079B60
:10A7D00003F1010B0A9B22A9DB001A4601EB0309D6
:10A7E0000093049B0DF5E47A19460AEBCB0B01EBC1
:10A7F0000208039B002BC0F20183049C4D460026F7
:10A80000002775E90223F4E8020100F089FF0246FF
:10A810000B463046394600F0D1FD444506460F460A
:10A82000EFD1EAE80267DA4509F10809E1D10799B1
:10A830000098049C009101F18043013B9B0020445F
:10A840001A1F83460EA8024403440C920D93009AEB
:10A850009AA901EBC203002A53E9284529DD0DF529
:10A86000E47A0AEBC2080DF1340900225E4B20465F
:10A87000294600F055FF01F0EDF900F0EBFE002253
:10A880005A4B06460F4600F04BFF02460B46204649
:10A89000294600F091FD01F0DDF978E9022349F83D
:10A8A000040F3946304600F089FDD04504460D4678
:10A8B000DBD1DDF8189045EC104B484600F0E4FC85
:10A8C00055EC104B00224FF07F5310EE100A294632
:10A8D00000F026FF41EC100B00F042FC002251EC8E
:10A8E000100B434B00F01CFF02460B462046294646
:10A8F00000F062FD0D46044601F0ACF9804600F020
:10A90000A9FE0B4602462946204600F055FD4B465F
:10A91000002B06460F4640F3FA80009A0EA9013A32
:10A92000C9F1180351F8225045FA03F101FA03F373
:10A930000EA8EB1A40F82230C9F11705884443FAF3
:10A9400005F5002D6EDD009B002B08F1010840F39A
:10A9500074820E9C002C40F01B83009B012B40F363
:10A9600094820EAA012352F8044F002C00F0888232
:10A97000581C0EAAC4F1807442F82340009A824207
:10A9800019DD0EAA0EAC52F820106FF07F42511A5A
:10A9900044F820100099023399420CDD1046009AC9
:10A9A0000EA901EB830301EB82011A68821A43F8B6
:10A9B000042B8B42F9D1069B002B1BDD069B012B40
:10A9C0004FF0010440F04182009B5A1E0EAB0EA9CD
:10A9D00053F82230C3F3160341F8223041E200BF9E
:10A9E00000C50200ABAAAA2A0000703E0000704118
:10A9F00000002040022D15D132463B4600209449EC
:10AA000000F0DAFC06460F4606989FED8D0B00F02D
:10AA10003BFC3046394653EC102B00F0CDFC0225B0
:10AA200006460F46002200233046394601F0E0F882
:10AA3000002800F03B82009A079B501E83420FDCE7
:10AA400002F18043013B0EAA0D9C02EB830300221E
:10AA500053F80419A34242EA0102F9D1002A67D14E
:10AA6000079B0EAA013B52F82330002B40F01C82BA
:10AA70000C9A012352F8041901330029FAD0009AE4
:10AA8000D31802F1010A9A4509933DDC009B0A990B
:10AA90000B9A0B4409990AEB0208994622AB08F17C
:10AAA000804803EBC9098B18A59A08F1FF3802EB1F
:10AAB000880872AA02EBCA0AA59A02EB83030093E4
:10AAC00058F8040F00F0C6FD039B002BE9E80201D3
:10AAD0004FF000064FF0000711DB049C4D4675E96E
:10AAE0000223F4E8020100F01BFE02460B4630464A
:10AAF000394600F063FC5C4506460F46EFD1009BEB
:10AB00009845EAE80267DBD1099B00939FE606D1EE
:10AB1000009B0EAA013B52F82350ED1511E70022CD
:10AB20004C4B01F083F8002840F07281054679E72C
:10AB30000EA9039551F820300699CDF824801839D4
:10AB40000246009006916BB900F18043013B0EA8CC
:10AB500000EB830353F80409013A18390028F9D0AF
:10AB60000092069106989FED360B00F08DFB009B3E
:10AB7000002B55EC104BC0F2FC81DA0072A901EBFE
:10AB8000020B06920EAA02EB8306DFF8CC904FF080
:10AB900000080BF10807043656F8040D00F05AFDC2
:10ABA00022462B4600F0BCFD4B4667E902014246B7
:10ABB0002046294600F0B4FD0EAB9E4204460D46E9
:10ABC000EAD14AACDDF81C9004944FF0000AB9F1C8
:10ABD000000FC0F22F81DFF884805D461AA1D1E911
:10ABE000000100260027002403E0544510DCF8E8AB
:10ABF0000201F5E8022300F093FD02460B463046C1
:10AC0000394600F0DBFB0134A14506460F46ECDA7D
:10AC1000049B03EBCA03ABF1080BC3E9006770ABFD
:10AC20009B450AF1010AD2D1A49B049C032B00F29C
:10AC30008D80DFE813F0C90092009200150000BF7C
:10AC4000000000000000F03F00000040FB21F93F41
:10AC50000000F03F0000E03F0000703EC8C402006A
:10AC6000009B002B40F38281069A04EB020ADAE98A
:10AC7000008902F1080525440DF5987B1AED027B49
:10AC800042464B4651EC170B8DED047B00F096FBD2
:10AC900006460F4602460B46DDE9040100F08CFB38
:10ACA00042464B4600F08AFB65E902015D45B0462D
:10ACB000B9466AE90267E1D1009B012B40F3568156
:10ACC000069BE518D5E9008903F1080B04EB0B0A94
:10ACD00015ED027B42464B4651EC170B8DED007B88
:10ACE00000F06CFB06460F4602460B46DDE900010C
:10ACF00000F062FB4B46424600F060FB6AE902014D
:10AD00004EAB5345B046B94665E90267E0D1002035
:10AD1000002104EB0B0575E9022300F04FFBAA4567
:10AD2000F9D1039B002B00F00B816268E368089F58
:10AD30002568A4683D6002F1004203F1004301F17F
:10AD400000417A60FB60BC6038617961099B03F067
:10AD500007000DF51B7DBDE8F08F069D08352544E5
:10AD60000020002175E9022300F028FBA542F9D15B
:10AD7000039B002B00F0D380089E024601F10043A4
:10AD800086E80C000B460246D4E9000100F014FBF3
:10AD9000009B002B0BDD4CAD0124F5E8022300F0F5
:10ADA0000DFB009B0134A342F7DA039B13B101F1C1
:10ADB00000431946089BC3E90201099B03F0070001
:10ADC0000DF51B7DBDE8F08F069D083500200021A4
:10ADD000254475E9022300F0F1FAAC42F9D1039B56
:10ADE00013B101F100431946089BC3E90001099B17
:10ADF00003F007000DF51B7DBDE8F08F002600274E
:10AE0000EAE80267DA4509F108097FF4F2AC0EE5D9
:10AE1000009B002B08F10108C8BF02253FF799AD40
:10AE200032463B460020614900F0C6FA022506463C
:10AE30000F46F7E500260027EAE6069B002B27DDF4
:10AE40000024069B012B3FF4BFAD022B09D1009BD0
:10AE50005A1E0EAB0EA953F82230C3F3150341F866
:10AE60002230022D7FF4DEAD32463B4600204F49B2
:10AE700000F0A2FA06460F46002C3FF4D3ADC3E51E
:10AE80000099013399427FF46EAD069B002BD8DC0C
:10AE9000022D7FF4C7AD32463B460020434900F007
:10AEA0008BFA06460F46BDE50123E8E5069B0395B0
:10AEB000584247EC106BCDF8248000F0E5F955ECD2
:10AEC000104B00223A4B10EE100A294600F0AEFE5D
:10AED000002841D00022374B2046294600F020FCB4
:10AEE00000F0B8FE064600F0B5FB0022304B00F043
:10AEF00017FC02460B462046294600F05DFA00F09A
:10AF0000A9FE0099069B0A461833013206930B46A8
:10AF10000EA9009241F8230041F8226022E6089B26
:10AF20000246C3E900010B46D4E9000100F044FAEF
:10AF3000009B002B3FF72FAF089BC3E902013CE7C2
:10AF4000D4E90067D4E90223089DC5E90401C5E9F5
:10AF50000067C5E90223F9E62946204600F07AFE9B
:10AF6000009A0EA941F82200FCE54AAC002000211D
:10AF7000D7E6A49B032B3FF6E9AE01A252F823F0DB
:10AF80009FAF020097AF020097AF02006BAF0200C5
:10AF900001200023EDE4002000214AACE8E6002077
:10AFA00000211CE70A9BDB00009340E40000F03F17
:10AFB000000070410000703E2DE9F04F55EC104B41
:10AFC0002DED028BB0EE418AF0EE618A25F0004350
:10AFD000B3F1795F83B0824607DA10EE100A294692
:10AFE00000F038FE002800F08E8022462B462046D6
:10AFF000294600F095FB06460F4602460B462046C2
:10B00000294600F08DFB47A3D3E9002380468946FB
:10B010003046394600F084FB44A3D3E9002300F016
:10B02000CBF932463B4600F07BFB42A3D3E9002339
:10B0300000F0C4F932463B4600F072FB3FA3D3E96F
:10B04000002300F0B9F932463B4600F069FB3DA30E
:10B05000D3E9002300F0B2F9CDE90001BAF1000F05
:10B0600037D000222E4B51EC180B00F059FBDDE9D4
:10B07000002382468B464046494600F051FB02467B
:10B080000B465046594600F097F932463B4600F0D1
:10B0900047FB53EC182B00F08FF91FA3D3E90023D3
:10B0A00006460F464046494600F03AFB02460B462C
:10B0B0003046394600F082F902460B4620462946C2
:10B0C00000F07AF941EC100B03B0BDEC028BBDE847
:10B0D000F08F02460B463046394600F021FB0EA3A6
:10B0E000D3E9002300F068F942464B4600F018FB14
:10B0F00022462B4600F062F941EC100B03B0BDEC88
:10B10000028BBDE8F08F45EC104B03B0BDEC028B19
:10B11000BDE8F08FAFF30080495555555555C53FF3
:10B120000000E03F7CD5CF5A3AD9E53DEB9C2B8A15
:10B13000E6E55A3E7DFEB157E31DC73ED561C11914
:10B14000A0012A3FA6F810111111813F53EC102BDA
:10B1500023F0004343EC102B704700BF00000000B9
:10B1600051EC100BC1F30A532DE9F041A3F2FF3566
:10B17000132D0C460F4610EE106A1DDC002D43DB2C
:10B180003D4B43FA05F801EA0803034319D038A3FD
:10B19000D3E9002300F012F90022002300F050FD53
:10B1A00020B1002C49DB27EA08040026234632465A
:10B1B00043EC102BBDE8F081332D06DDB5F5806F33
:10B1C00032D041EC100BBDE8F081A3F213434FF0F5
:10B1D000FF3828FA03F810EA080FF2D024A3D3E9C5
:10B1E000002300F0EBF80022002300F029FD0028E6
:10B1F000DCD0002C27DB3C4626EA080623463246F4
:10B2000043EC102BBDE8F08119A3D3E9002300F033
:10B21000D5F80022002300F013FD0028C6D0002C32
:10B220001CDB00263446C1E710EE102A0B4600F066
:10B23000C5F841EC100BBDE8F0814FF4801343FAE0
:10B2400005F52F44AFE7142D10D00123C5F13405C7
:10B2500003FA05F5AE1928BFFF18CCE724F0004229
:10B26000064B324318BF1C4600269FE70137C2E752
:10B270009C7500883CE4377EFFFF0F000000F0BFA4
:10B28000002070470000000053EC102B70B5C3F392
:10B290000A541946054614BB23F0004111432AD035
:10B2A00019460022384B394E10EE100A00F038FAD9
:10B2B000B54202460B461FDBC1F30A54363C2C4410
:10B2C00040F2FE7084421FDC002C2DDD21F0FF4196
:10B2D00021F4E00141EA045343EC102B70BD40F22D
:10B2E000FF708442EBD110EE100A194600F066F8A8
:10B2F00041EC100B70BD70BD1FA3D3E9002300F01B
:10B300000FFA41EC100B70BD43EC112B9FED1C0BA1
:10B3100000F040F81AA3D3E9002351EC100B00F021
:10B32000FFF941EC100B70BD14F1350F13DA4CF23C
:10B3300050318D4243EC112BE8DC9FED0F0B00F0F8
:10B3400029F80DA3D3E9002351EC100B00F0E8F924
:10B3500041EC100B70BD21F0FF4121F4E0013634C7
:10B3600041EA0453104619460022094B00F0D8F96F
:10B3700041EC100B70BD00BF59F3F8C21F6EA50160
:10B380009C7500883CE4377E00005043B03CFFFFD2
:10B390000000903C53EC102B11EE900A23F000417A
:10B3A00000F0004041EA000343EC102B704700BF5F
:10B3B00081F0004102E000BF83F0004330B54FEA66
:10B3C00041044FEA430594EA050F08BF90EA020FD3
:10B3D0001FBF54EA000C55EA020C7FEA645C7FEA66
:10B3E000655C00F0E2804FEA5454D4EB5555B8BF89
:10B3F0006D420CDD2C4480EA020281EA030382EAFA
:10B40000000083EA010180EA020281EA0303362D8B
:10B4100088BF30BD11F0004F4FEA01314FF4801C5E
:10B420004CEA113102D0404261EB410113F0004F70
:10B430004FEA03334CEA133302D0524263EB430327
:10B4400094EA050F00F0A780A4F10104D5F1200EC5
:10B450000DDB02FA0EFC22FA05F2801841F1000120
:10B4600003FA0EF2801843FA05F359410EE0A5F1F4
:10B4700020050EF1200E012A03FA0EFC28BF4CF025
:10B48000020C43FA05F3C01851EBE37101F00045DB
:10B4900007D54FF0000EDCF1000C7EEB00006EEBE8
:10B4A0000101B1F5801F1BD3B1F5001F0CD3490872
:10B4B0005FEA30004FEA3C0C04F101044FEA4452C9
:10B4C00012F5800F80F09A80BCF1004F08BF5FEA50
:10B4D000500C50F1000041EB045141EA050130BD30
:10B4E0005FEA4C0C404141EB010111F4801FA4F1D3
:10B4F0000104E9D191F0000F04BF01460020B1FA28
:10B5000081F308BF2033A3F10B03B3F120020CDA5F
:10B510000C3208DD02F1140CC2F10C0201FA0CF03D
:10B5200021FA02F10CE002F11402D8BFC2F1200CA2
:10B5300001FA02F120FA0CFCDCBF41EA0C01904058
:10B54000E41AA2BF01EB0451294330BD6FEA0404A1
:10B550001F3C1CDA0C340EDC04F11404C4F120028C
:10B5600020FA04F001FA02F340EA030021FA04F39E
:10B5700045EA030130BDC4F10C04C4F1200220FAF5
:10B5800002F001FA04F340EA0300294630BD21FA33
:10B5900004F0294630BD94F0000F83F4801306BFF9
:10B5A00081F480110134013D4EE77FEA645C18BFED
:10B5B0007FEA655C29D094EA050F08BF90EA020F84
:10B5C00005D054EA000C04BF1946104630BD91EA7C
:10B5D000030F1EBF0021002030BD5FEA545C05D17F
:10B5E0004000494128BF41F0004130BD14F58004BE
:10B5F0003CBF01F5801130BD01F0004545F0FE4132
:10B6000041F470014FF0000030BD7FEA645C1ABF66
:10B61000194610467FEA655C1CBF0B46024650EA9D
:10B62000013406BF52EA033591EA030F41F40021C9
:10B6300030BD00BF90F0000F04BF0021704730B54F
:10B640004FF4806404F132044FF000054FF0000124
:10B6500050E700BF90F0000F04BF0021704730B5E5
:10B660004FF4806404F1320410F0004548BF4042BA
:10B670004FF000013EE700BF42004FEAE2014FEA0F
:10B6800031014FEA02701FBF12F07F4393F07F4FEA
:10B6900081F06051704792F0000F14BF93F07F4F1C
:10B6A000704730B54FF4607401F0004521F000415F
:10B6B00020E700BF50EA010208BF704730B54FF0E5
:10B6C00000050AE050EA010208BF704730B511F0EA
:10B6D000004502D5404261EB41014FF4806404F122
:10B6E00032045FEA915C3FF4DCAE4FF003025FEAA4
:10B6F000DC0C18BF03325FEADC0C18BF033202EB2C
:10B70000DC02C2F1200300FA03FC20FA02F001FA85
:10B7100003FE40EA0E0021FA02F11444C1E600BF24
:10B7200070B54FF0FF0C4CF4E06C1CEA11541DBFD7
:10B730001CEA135594EA0C0F95EA0C0F00F0DEF8A2
:10B740002C4481EA030621EA4C5123EA4C5350EA87
:10B75000013518BF52EA033541F4801143F48013D8
:10B7600038D0A0FB02CE4FF00005E1FB02E506F069
:10B770000042E0FB03E54FF00006E1FB03569CF0BE
:10B78000000F18BF4EF0010EA4F1FF04B6F5007FC4
:10B7900064F5407404D25FEA4E0E6D4146EB060636
:10B7A00042EAC62141EA55514FEAC52040EA5E50BF
:10B7B0004FEACE2EB4F1FD0C88BFBCF5E06F1ED869
:10B7C000BEF1004F08BF5FEA500E50F1000041EBA0
:10B7D000045170BD06F0004646EA010140EA02004D
:10B7E00081EA0301B4EB5C04C2BFD4EB0C0541EA6F
:10B7F000045170BD41F480114FF0000E013C00F384
:10B80000AB8014F1360FDEBF002001F0004170BDA7
:10B81000C4F10004203C35DA0C341BDC04F11404C0
:10B82000C4F1200500FA05F320FA04F001FA05F24C
:10B8300040EA020001F0004221F0004110EBD37019
:10B8400021FA04F642EB06015EEA430E08BF20EA45
:10B85000D37070BDC4F10C04C4F1200500FA04F3E8
:10B8600020FA05F001FA04F240EA020001F000417A
:10B8700010EBD37041F100015EEA430E08BF20EAED
:10B88000D37070BDC4F1200500FA05F24EEA020E35
:10B8900020FA04F301FA05F243EA020321FA04F064
:10B8A00001F0004121FA04F220EA020000EBD3701B
:10B8B0005EEA430E08BF20EAD37070BD94F0000F1B
:10B8C0000FD101F00046400041EB010111F4801F4F
:10B8D00008BF013CF7D041EA060195F0000F18BF00
:10B8E000704703F00046520043EB030313F4801F3C
:10B8F00008BF013DF7D043EA0603704794EA0C0FF6
:10B900000CEA135518BF95EA0C0F0CD050EA41060B
:10B9100018BF52EA4306D1D181EA030101F0004188
:10B920004FF0000070BD50EA410606BF10461946B0
:10B9300052EA430619D094EA0C0F02D150EA0136BC
:10B9400013D195EA0C0F05D152EA03361CBF1046FD
:10B9500019460AD181EA030101F0004141F0FE419C
:10B9600041F470014FF0000070BD41F0FE4141F420
:10B97000780170BD70B54FF0FF0C4CF4E06C1CEA20
:10B9800011541DBF1CEA135594EA0C0F95EA0C0FD5
:10B9900000F0A7F8A4EB050481EA030E52EA033590
:10B9A0004FEA013100F088804FEA03334FF08055B1
:10B9B00045EA131343EA12634FEA022245EA1115DE
:10B9C00045EA10654FEA00260EF000419D4208BF8F
:10B9D000964244F1FD0404F5407402D25B084FEA3C
:10B9E0003202B61A65EB03055B084FEA32024FF4E8
:10B9F00080104FF4002CB6EB020E75EB030E22BF45
:10BA0000B61A754640EA0C005B084FEA3202B6EB04
:10BA1000020E75EB030E22BFB61A754640EA5C00B3
:10BA20005B084FEA3202B6EB020E75EB030E22BF43
:10BA3000B61A754640EA9C005B084FEA3202B6EB44
:10BA4000020E75EB030E22BFB61A754640EADC0003
:10BA500055EA060E18D04FEA051545EA16754FEA65
:10BA600006164FEAC30343EA52734FEAC2025FEA83
:10BA70001C1CC0D111F4801F0BD141EA00014FF012
:10BA800000004FF0004CB6E711F4801F04BF0143E3
:10BA90000020B4F1FD0C88BFBCF5E06F3FF6AFAEFF
:10BAA000B5EB030C04BFB6EB020C5FEA500C50F18F
:10BAB000000041EB045170BD0EF0004E4EEA113112
:10BAC00014EB5C04C2BFD4EB0C0541EA045170BD19
:10BAD00041F480114FF0000E013C90E645EA060E5D
