:020000022000DC
:1060000000000120E1620200096302000B6302004C
:106010000D6302000F630200116302000000000024
:1060200000000000000000000000000013630200F8
:1060300015630200000000001763020019630200EC
:10604000A11203001B630200F91203001B6302008C
:106050001B6302001B6302001B6302001B63020040
:106060001B6302001B630200D90603001B630200CE
:106070001B6302001B6302001B6302001B63020020
:106080001B630200C16502001B6302001B63020068
:106090005D6602001B630200812703001B63020090
:1060A0001B6302001B6302001B6302001B630200F0
:1060B0001B6302001B6302000000000000000000E0
:1060C0001B6302001B6302001B6302001B630200D0
:1060D0001B6302001B6302001B6302000000000040
:1060E00000000000000000000000000000000000B0
:1060F00000000000000000000000000000000000A0
:10610000000000000000000000000000000000008F
:10611000000000000000000000000000000000007F
:10612000000000000000000000000000000000006F
:10613000000000000000000000000000000000005F
:10614000000000000000000000000000000000004F
:10615000000000000000000000000000000000003F
:10616000000000000000000000000000000000002F
:10617000000000000000000000000000000000001F
:10618000000000000000000000000000000000000F
:1061900000000000000000000000000000000000FF
:1061A00000000000000000000000000000000000EF
:1061B00000000000000000000000000000000000DF
:1061C00000000000000000000000000000000000CF
:1061D00000000000000000000000000000000000BF
:1061E00000000000000000000000000000000000AF
:1061F000000000000000000000000000000000009F
:1062000010B5054C237833B9044B13B10448AFF3F0
:1062100000800123237010BD3C9900200000000085
:10622000982D03000C4B43B10C480D4910B5AFF34A
:1062300000800C48036823B910BD0A48036833B9CD
:106240007047094B002BF7D0BDE810401847064BAC
:10625000002BF5D0184700BF00000000982D030068
:10626000409900203899002000000000154B002BB9
:1062700008BF134B9D46A3F5803A00218B460F467D
:106280001348144A121A0CF02BFB0F4B002B00D0B2
:1062900098470E4B002B00D09847002000210400A7
:1062A0000D000D48002802D00C48AFF300800CF020
:1062B000D9FA200029000BF0DBFD0CF0BFFA00BF7B
:1062C00000000800000001200000000000000000A5
:1062D0003C9900208CC70020000000000000000056
:1062E0000649074A074B9B1A03DD043BC858D050A8
:1062F000FBDC00F0C7FCFFF7B9FF0000082E03002D
:10630000A89800203C990020FEE7FEE7FEE7FEE7A4
:10631000FEE7FEE7FEE7FEE7FEE7FEE71FB500212A
:10632000039001AA44F201000191029109F028FCB6
:1063300005B05DF804FB000012F0030310B513D1A3
:106340000A4C22604C1CE400A4B22244084C226097
:10635000084A1370084A1370084A1080084A1180CE
:10636000084A1380184610BD072010BD6099002010
:106370005C9900205A9900206899002064990020B7
:106380006699002058990020074B084A1B7812880C
:106390001846074B1B78984284BF511C5B181B1A88
:1063A0009BB2D31A98B27047689900206699002072
:1063B0005A9900202DE9F347344D2B888B4206462D
:1063C0000C4617465DD302A84FF0000800F8018D77
:1063D00000F096FADFF8C8C02D499CF800E00B7871
:1063E000DAB22C4B1888824238BF01325FFA8EFE37
:1063F00038BF5FFA82F8C6453DD091F800800A7830
:10640000D2B2904286BF0132D2B200220A709CF80A
:1064100000301A460B789A4284BF01301B189B1A31
:106420001D4A11889BB2994200D213809DF8070043
:1064300000F08AFA4FF6FF73984524D0DFF864A085
:10644000DAF800304FEAC80903EB090243F8387064
:10645000A6B19CB1114B28881B68224608FB00306E
:1064600031460CF032FADAF800304B4400209C80C0
:1064700002B0BDE8F0874FF6FF78D7E700209080A4
:10648000F6E70920F4E70420F2E700BF6499002052
:106490005A99002066990020589900205C990020A4
:1064A000689900206099002007B502A8002300F831
:1064B000013D00F025FA064A9DF807001368591CB3
:1064C0001CBF0133136000F03FFA03B05DF804FB1A
:1064D0006C99002007B502A8002300F8013D00F0E8
:1064E0000FFA064A13680BB1013B13609DF80700D1
:1064F00000F02AFA03B05DF804FB00BF6C9900209D
:10650000F8B5134E134C356825B9134B22781B7818
:106510009A4200D1F8BD22781048114B07881B68B9
:106520001048D2B211B203EBC10E006853F83130FB
:10653000BEF8041002FB070098470B4B22781B881B
:10654000D2B2934286BF531CDBB22B462370DAE7EC
:106550006C990020689900205A99002064990020C5
:10656000609900205C99002066990020024B4FF44E
:106570003C6043F0010318471029030038B50C4B69
:106580000C4C4FF40032C3F8802001254FF48033C7
:10659000C4F84833C4F808336560FFF7E7FF064BDB
:1065A000A56000241C60FFF7E1FF044B1C7038BDA0
:1065B00000E100E0001001408C9A00207D9A00204C
:1065C000F8B51F491F4B0025C1F84051C1F844518F
:1065D000C1F84851C1F84C51C1F80051C1F80451FB
:1065E0001B684BB3D1F8044517490968641A24F0B5
:1065F0007F442F461A68A24209D8A41A15441A7C6F
:10660000DE691AB11F745A6998699047AEB90F4B89
:106610000F4A197813788B4205D10133DBB2022B74
:1066200008BF0023137012780A4B43F822500A4B1C
:106630004FF48012C3F80021F8BD3346DAE700BFFB
:1066400000100140909A00208C9A0020889A002027
:10665000899A0020809A002000E100E02DE9F74FA0
:106660009C4A9D49137809789C4E994257D0013332
:10667000DBB2022B08BF0023137099491278994BA3
:106680000F6853F822003B1823F07F4300220B6071
:10669000336815461446964613B942B1336006E096
:1066A0001968814229D902B13360091A19604FF083
:1066B000010833688C4FDFF83CB200934FF00009BB
:1066C000002D61D02C46ED69854B60681A68831AED
:1066D00023F07F41854B9942A36800F2B7800B44B9
:1066E000236000236360A360E361336801222274A6
:1066F000002B40F0B3803460E2E7401A0C44D968C4
:10670000C3F800E0D3F81CC031B13A1922F07F423F
:10671000DD615A6099601D4663460122BCE7002591
:10672000A846C6E7531CB978DBB299423B704FF0DC
:10673000180303FB027208BF3D7013799468022BA3
:106740001BD0032B11D0012B1ED1217CE1B9D368C2
:1067500063601369A3605369E3609369A361644B49
:106760001B78002BB0D06160AEE7002335681A4675
:10677000002D67D143B1356006E03268134692467A
:10678000002B5AD1002323743A787B789342C9D1E5
:10679000B9F1000F06D13368009A9A4202D1B8F1DC
:1067A000000F44D03368002B73D0D3F800A0514DB4
:1067B0004B4BD5F804751C68DFF840813E1B98F8F8
:1067C000003026F07F4603369BB94FF48033C5F87E
:1067D0004433C5F80433484B4FF400324FF00109FD
:1067E000C3F880211A60C5F80090FFF7BFFE88F853
:1067F0000090B2452CBF5444A41924F07F44C5F83E
:106800004045D5F80435DB1B23F07F43E41B0333FD
:1068100024F07F44A3420AD9D5F80435C5F84035A1
:10682000FFF7A4FE344B4FF40032C3F80021304B85
:1068300000221A7003B0BDE8F08F9C422CD09A461B
:10684000DB699DE72A740123ED6991E7121A22F0B2
:106850007F429A4234BF9B1A002341E7226819689D
:106860008A420BD88A1A1A60E36144E7521AD9693E
:10687000184661B92260E161DC6121E718461968B8
:106880009142F3D3891A196019460346F2E70B4681
:10689000F5E7FFF773FECAE754450DD1D3693360BE
:1068A00053B90F4801920121CBF808100360104B37
:1068B0001970FFF75BFE019AE1692368CAF81C10A2
:1068C00011B1086803440B6033689A4218BF4FF057
:1068D000010957E7889A0020899A0020909A0020A1
:1068E0008C9A0020809A002070990020FEFF7F0083
:1068F0007C9A00200010014000E100E07D9A002019
:1069000070B5EFF3108672B60C4A946801239CB9F7
:1069100093600B4B0B4DD3F8801029401160C3F8E6
:106920008050D3F8841051604FF0FF32C3F88420B8
:10693000047006B962B670BD0370FAE79CB300201C
:1069400000E100E0FC06FFBD10B5084B9A685AB1A3
:1069500050B9EFF3108272B605491C680C605C6890
:106960004C60986002B962B610BD00BF9CB30020B5
:1069700000E100E02AB113880144884204D118469E
:1069800070474FF6FF73F7E710F8012B5BBA9BB225
:106990005340C3F30312534083EA03331BB25A013B
:1069A00002F4FF5253409BB2E7E737B5054602A811
:1069B000002400F8014DFFF7A3FF2A6869681368F7
:1069C0008B4210D9591E116013F8014C2A8AEB68CA
:1069D00002FB04342A68AB6811685B1A1179DBB2D8
:1069E000994238BF13719DF80700FFF7ADFF2046AD
:1069F00003B030BD37B5054602A8002300F8013DBD
:106A00000C46FFF77DFF2A681368591C1160E9687E
:106A1000641A298AB4FBF1F41C709DF80700FFF793
:106A200093FF03B030BD026813685268934291BF70
:106A3000D01A80680130801888BFC01A7047036878
:106A400081681A685B688B4234BF01330023D31A14
:106A5000584258417047F7B5044602A8002300F891
:106A6000013D0D46FFF74CFF2046FFF7E8FF10B150
:106A7000237C002B3DD12168A6684B684A68B2424E
:106A800034BF013200224A6038B12168A0680A6828
:106A9000824234BF013200220A60E2686068511EFF
:106AA000072920D8DFE801F004101F141F1F1F184A
:106AB0002A78C2542046FFF7B6FF23689A689042AE
:106AC00000D99860002415E02A8820F81320F1E707
:106AD0002A6840F82320EDE7D5E9006700EBC30002
:106AE000C0E90067E6E7294602FB03000BF0EDFE74
:106AF000E0E704249DF80700FFF726FF204603B0D7
:106B0000F0BD37B5054602A8002400F8014DFFF797
:106B1000F7FE0C22214628680BF0E2FE9DF80700E4
:106B2000FFF712FF03B030BD13B5044602A80023DF
:106B300000F8013DFFF7E4FE2046FFF774FF04462E
:106B40009DF80700FFF700FF204602B010BD036864
:106B500018685B68C31A58425841704773B50546B8
:106B600002A8002300F8013D0C461646FFF7C8FEB8
:106B70002846FFF7ECFF002832D129680B682EB9B0
:106B80000A68A868824238BF561C0E60EA686968C5
:106B9000501E07281ED8DFE800F0040E1D121D1D30
:106BA0001D16CB5C237000249DF80700FFF7CCFE78
:106BB000204602B070BD31F813302380F3E751F85E
:106BC00023302360EFE701EBC301D1E90023C4E9DF
:106BD0000023E8E702FB031120460BF076FEE2E714
:106BE0000524E1E701600B6843604A68934204BFF3
:106BF000002343607047436843B1026891680B44C7
:106C000043605268934204BF002343607047000012
:106C1000094B1B78062B0CD1084B1B681A0708D1AF
:106C2000074B186800F0F000A0F1300358425841BB
:106C300070470020704700BFE00F00F0E40F00F045
:106C4000E80F00F00C4B1B78062B10D10B4B1B6888
:106C50001A070CD10A4B186800F0F003302B08D04B
:106C600000F0E000A0F14003584258417047002076
:106C700070470120704700BFE00F00F0E40F00F004
:106C8000E80F00F008B5FFF7DDFF28B17F4B804A21
:106C90001B68C3F304231360FFF7BAFF10B17D4BE9
:106CA0007D4A1A60FFF7CEFF28B17C4B7C4A1B68F7
:106CB000C3F342331360FFF7ABFF20B1794AD368C7
:106CC00023F08073D360FFF7BDFF40B14FF08043E6
:106CD0000022C3F80C21C3F81021C3F83825FFF7B0
:106CE00097FF10B1704B03221A60FFF791FF40B17C
:106CF0006E4B05221A6001229A6700229A603F2299
:106D00005A606B4B1B78062B09D16A4B1B6819071D
:106D100005D1694B1B6803F0F003502B67D0FFF7D8
:106D200091FF28B1654B664A1B6803F04F0313605F
:106D3000FFF788FF48B14FF08043D3F80024D20713
:106D400044BF6FF00102C3F800245E4B1B68062BA2
:106D500004D15D4B1B68062B00F091805B4AD2F892
:106D6000883043F47003C2F88830BFF34F8FBFF30D
:106D70006F8F4FF01023D3F80022002A03DBD3F8E3
:106D80000432002B2FDA524B0122C3F80425D3F82A
:106D90000024002AFBD04FF010221521C2F8001267
:106DA000D3F80024002AFBD04FF010231522C3F89B
:106DB0000422474B1A46D3F800140029FBD00021C7
:106DC000C3F80415D2F80034002BFBD0BFF34F8F6B
:106DD0003E49404BCA6802F4E0621343CB60BFF304
:106DE0004F8F00BFFDE73C4B3C4A1A6008BD4FF097
:106DF00080523B4BD2F80414C3F82015D2F8081483
:106E0000C3F82415D2F80C14C3F82815D2F81014BE
:106E1000C3F82C15D2F81414C3F83015D2F818148E
:106E2000C3F83415D2F81C14C3F84015D2F8201456
:106E3000C3F84415D2F82414C3F84815D2F828141E
:106E4000C3F84C15D2F82C14C3F85015D2F83014EE
:106E5000C3F85415D2F83414C3F86015D2F83814B6
:106E6000C3F86415D2F83C14C3F86815D2F840147E
:106E7000C3F86C15D2F84424C3F870254FE7194ABB
:106E8000136843F48063136068E700BF24030010B5
:106E90004035014074C007400DF0ADBA4402001007
:106EA0003C050040F0ED00E0A00500401056004019
:106EB000E00F00F0E40F00F0E80F00F058020010BF
:106EC000E40E0040300100103401001000ED00E03D
:106ED00000E001400400FA05A89800200090D003CB
:106EE00000C000403C17004040B149B10378602B1E
:106EF00006D1012914BF0920002070470E207047D9
:106F00000720704713460A460146602006F019BC68
:106F10007FB50C461D46064610B90E2004B070BD64
:106F200009B90720FAE70378682BFAD10123039304
:106F3000002AF2D0002DF0D02B68002BEDD01346A4
:106F400003AA06F02EFC0028E8D100902B4603AAE5
:106F50002146304606F05DFF0028DFD1039B9C42AE
:106F600018BF0920DAE700002DE9FF41DDF828808D
:106F70000190164600930F4609B90E2019E0002A29
:106F8000FBD000231568039368238DF80B302A4645
:106F900003AB0DF10B0006F049FC50B903AB2A46D8
:106FA000394601A806F0E3FB18B9019B23B1039B06
:106FB000336004B0BDE8F081B8F1000FDDD003AB61
:106FC0002A463946684606F0D2FB0028F1D1009BDC
:106FD000212B1AD00ED8022B13D0202B13D0012B2B
:106FE000CBD10D4C03AB2A4639464046A04700287A
:106FF000DDD0DEE7232B0CD009D3242BBDD1074CE9
:10700000F0E7074CEEE7074CECE7074CEAE7074CE4
:10701000E8E7074CE6E700BFD7DB020009A602005D
:1070200001DD020045A30200A1A3020021A4020089
:1070300089A702002DE9FF410E4690461D460746EE
:1070400008B90E2401E021B90724204604B0BDE8A8
:10705000F0810378672BF7D101230393002AF0D046
:10706000002DEED02B68002BEBD0134603AA06F0C0
:1070700098FB04460028E8D100902B4603AA31462D
:10708000384606F0C6FE04460028DED12B6823B938
:10709000039B9E4218BF0924D7E7D8F80020212A75
:1070A0001CD00ED8022A15D0202A15D0012AC8D10A
:1070B0000E4D03AA31463846A8470028E8D00446BA
:1070C000C3E7232A10D00BD3242A0BD0252AB8D10A
:1070D000074DEEE7074DECE7074DEAE7074DE8E718
:1070E000074DE6E7074DE4E7074DE2E737DC02002E
:1070F000D1A7020021DD020071A30200E1A302007A
:1071000041A4020037A60200A9A7020013460A46BE
:107110000146672006F015BB7FB50C461D460646A6
:1071200010B90E2004B070BD09B90720FAE7037842
:10713000662BFAD101230393002AF2D0002DF0D060
:107140002B68002BEDD0134603AA06F04EFB002857
:10715000E8D1074B009303AA2B462146304606F0A0
:1071600058FE0028DED1039B9C4218BF0920D9E7B6
:1071700097DC020013460A460146662006F0E1BA93
:10718000F0B50D4685B00646F0B111B9072005B03F
:10719000F0BD0478632CF9D104AC012744F8047DD8
:1071A0000092224606F047FC0028F0D100900A9B8E
:1071B00022462946304606F02CFE0028E7D1039BE4
:1071C0009D4218BF0920E2E70E20E0E7F0B587B046
:1071D000144603901F460E4629B322B300231568B8
:1071E000059363238DF813302A4605AB0DF1130088
:1071F00006F01CFBA8B905AB2A46314603A806F0E9
:10720000B6FA70B9039B13B1059B236009E0074BE5
:1072100000932A4605AB3146384606F0DBFD0028D0
:10722000F2D007B0F0BD0E20FBE700BF47DB020045
:10723000F0B585B00C461F460A9E054610B90E20D3
:1072400005B0F0BD09B90720FAE70378642BFAD13D
:1072500001230393002AF2D0002FF0D0002EEED0AD
:107260001368002BEBD03B68002BE8D03368002B71
:10727000E5D0104B0093134603AA06F0CAFD002880
:10728000DED10023009303AA3B462146284606F0A0
:10729000C0FD0028D4D10090334603AA21462846D9
:1072A00006F0B7FD0028CBD1039B9C4218BF0920F4
:1072B000C6E700BF75DB02002DE9F04387B0174633
:1072C0000390DDF838908DF80B308846002939D0CE
:1072D000002A37D000231568059305AE64238DF886
:1072E00013302A4633460DF1130006F09FFA044688
:1072F00058B933462A46414603A806F038FA0446F0
:1073000018B9039B2BB1059B3B60204607B0BDE835
:10731000F08333462A4641460DF10B0006F086FA0B
:1073200004460028F1D1B9F1000FECD09DF80B1004
:1073300000962B464246484606F0ADFB0028E2D0B8
:107340000446E2E70E24E0E77FB50C461D460646FC
:1073500010B90E2004B070BD09B90720FAE7037810
:10736000622BFAD101230393002AF2D0002DF0D032
:107370001368002BEDD02B68002BEAD00A4B00934A
:10738000134603AA06F045FD0028E3D100902B46E2
:1073900003AA2146304606F03CFD0028DAD1039BC3
:1073A0009C4218BF0920D5E7BFDB0200F0B587B0CB
:1073B000144603901F460E4629B322B300231568D6
:1073C000059362238DF813302A4605AB0DF11300A7
:1073D00006F02CFAA8B905AB2A46314603A806F0F8
:1073E000C6F970B9039B13B1059B236009E0074BF5
:1073F00000932A4605AB3146384606F0EBFC0028E0
:10740000F2D007B0F0BD0E20FBE700BF2DD8020080
:107410001FB50C46134610B90E2004B010BD09B9B3
:107420000720FAE70278652AFAD101220392002B9D
:10743000F2D01A68002AEFD00022009203AA06F0C8
:10744000E8FC0028E9D1039B9C4218BF0920E4E72F
:10745000F0B585B0144601901E460F4611B90E20B6
:1074600005B0F0BD002AFAD0002315680393652308
:107470008DF80B302A4603AB0DF10B0006F0D6F960
:107480000028EDD103AB2A46394601A806F06FF972
:107490000028E5D1019B13B1039B2360E0E7002E98
:1074A000DDD003AB2A463946304606F00BFC0028F7
:1074B000F2D0D5E713B5134610B90E2002B010BDB7
:1074C00009B90720FAE70278672AFAD10122019266
:1074D000002BF2D001AA06F064F9EFE72DE9F043A2
:1074E000884685B014461D46814620B90E26304692
:1074F00005B0BDE8F08309B90726F8E70378692BE2
:10750000FAD104AF012347F8043D13463A4606F08A
:1075100048F906460028EAD100902B463A464146F3
:10752000484606F076FC06460028E0D12B6823B9D1
:10753000039B984518BF0926D9E72268232A34D02F
:107540000ED8202A1DD004D8012A34D00024254684
:1075500019E0212A26D0222AF8D19C1C1F4D12E0C6
:10756000412A2BD006D8242A22D0402AEED11C460C
:107570001B4D08E0A02A24D0A12AE7D11C46194DB2
:1075800001E0194D9C1C203A032A1DD9002DADD0D5
:10759000002CABD023463A4641464846A84700282F
:1075A000C6D018E09C1C114DEDE79C1C104DEAE77D
:1075B0009C1C104DE7E71C460F4DE4E71C460F4DA1
:1075C000E1E71C460E4DDEE73A464146484606F0E6
:1075D0003AF90028DAD0064689E700BFA7CD0200B5
:1075E00039A80200E3CD02000BA8020009BB02008B
:1075F000A3AA020061D6020049DD020065A60200CE
:10760000BBCD020013460A460146692006F099B830
:10761000F7B50E4615460746E8B1E2B102AC0023C5
:1076200044F8043D531C224606F00DF988B92B4658
:1076300022463146384606F006F950B96B1D2246FF
:107640003146384606F0FFF818B9019B9E4218BF34
:10765000092003B0F0BD0E20FBE71FB514460190D2
:1076600069B162B104AB002243F8042D01A822687D
:1076700006F07DF808B9039B236004B010BD0E200E
:10768000FBE710B5002A00F05881002B00F055816F
:10769000002800F052810488013C762C00F24981D8
:1076A000DFE814F07B0077004701470147014701FD
:1076B000470147014701470147014701470147018A
:1076C0004701AB00A7007F0087008B009300B30049
:1076D0009700B7008F009B00A3009F003F01AF0001
:1076E00083004301BF00BB00C300C700470147013F
:1076F000470147014701470147014701470147014A
:107700004701D700EB00CB00CF00F300D300DF0030
:10771000EF00E700DB00F700E300FB004701470153
:107720004701470147014701470147014701470119
:107730004701470147014701470147014701470109
:1077400047010B010F011301FF000701170103019E
:107750001B01470147014701470147014701470115
:1077600047014701470147014701470147014701D9
:1077700047014701470147014701470147014701C9
:1077800047011F01230127012B012F01330137017D
:107790003B01BDE8104000F0D2B8BDE8104000F059
:1077A00014B9BDE8104001F005BCBDE8104001F07F
:1077B00035BCBDE8104001F079BEBDE8104001F0D5
:1077C00041BEBDE8104001F099BBBDE8104001F09A
:1077D0007BBDBDE8104001F063BBBDE8104001F087
:1077E00051BCBDE8104001F0B0BDBDE8104001F053
:1077F000C5BEBDE8104001F0ADBCBDE8104001F0D1
:1078000075BCBDE8104001F085BEBDE8104001F038
:10781000EBBCBDE8104001F015BDBDE8104001F023
:10782000F4BEBDE8104001F02FBFBDE8104001F0EC
:107830005FBFBDE8104001F08FBFBDE8104003F00E
:10784000ADBBBDE8104003F060BCBDE8104003F0E4
:10785000E2BBBDE8104003F0D2BCBDE8104003F02D
:1078600091BCBDE8104003F007BDBDE8104003F037
:107870007DBDBDE8104003F0B6BDBDE8104003F08B
:1078800038BDBDE8104003F003BCBDE8104003F074
:1078900048BBBDE8104003F0E3BDBDE8104003F075
:1078A0001CBEBDE8104004F087BEBDE8104004F0E7
:1078B00003BFBDE8104004F0ACBEBDE8104004F0CA
:1078C00029BFBDE8104004F01DBEBDE8104004F023
:1078D000C6BEBDE8104004F075BFBDE8104004F01E
:1078E0009EBFBDE8104005F075BCBDE8104005F036
:1078F000AEBCBDE8104005F0E7BCBDE8104005F0A7
:1079000018BDBDE8104005F041BDBDE8104005F0D0
:1079100090BDBDE8104005F0C1BDBDE8104005F0C8
:1079200026BEBDE8104001F087BABDE8104001F066
:1079300043BD00221A60062010BD0E2010BDF0B518
:10794000154685B01F46044600283AD0002A38D094
:10795000002B36D00388022B35D13E68ADF80A30B3
:107960000022039203AB324629460DF10A0005F0CE
:107970002BFF20BB03AB32462946201D05F024FF18
:10798000E8B903AB3246294604F1080005F04EFF82
:10799000A8B903AB3246294604F1100005F014FFE4
:1079A00068B9009003AB32462946E06806F012FA47
:1079B00028B9A08806F000FB08B9039B3B6005B01E
:1079C000F0BD0E20FBE70720F9E7F7B515461E4688
:1079D000044620B31AB313B30388012B21D13768AF
:1079E000ADF802300022019201AB3A4629460DF172
:1079F000020005F0E9FE80B901AB3A462946201D98
:107A000005F0E2FE48B901AB3A46294604F1080008
:107A100005F00CFF08B9019B336003B0F0BD0E20E8
:107A2000FBE70720F9E7F7B50D461F460646E8B124
:107A300011B9072003B0F0BD0378732BF9D102AC64
:107A4000012344F8043D1346224605F0FCFE0028BD
:107A5000F0D13B4622462946304605F0F4FE002888
:107A6000E8D1019B9D4218BF0920E3E70E20E1E722
:107A700013460A460146732005F063BE37B5134628
:107A80000C4698B111B9072003B030BD0278742AB2
:107A9000F9D102AA012542F8045D05F0D4FE0028C0
:107AA000F2D1019B9C4218BF0920EDE70E20EBE7C5
:107AB00013460A460146742005F043BE1FB50C4626
:107AC000134610B90E2004B010BD09B90720FAE71B
:107AD0000278792AFAD101220392002BF2D01A6897
:107AE000002AEFD00022009203AA06F092F90028A3
:107AF000E9D1039B9C4218BF0920E4E7F0B587B0A9
:107B0000144603901F460E4629B322B3002315687E
:107B1000059379238DF813302A4605AB0DF1130038
:107B200005F084FEA8B905AB2A46314603A805F046
:107B30001EFE70B9039B13B1059B236009E0074B40
:107B400000932A4605AB3146384606F043F9002833
:107B5000F2D007B0F0BD0E20FBE700BFC9D702008E
:107B600013B513460C4610B90E2002B010BD09B96A
:107B70000720FAE70278782AFAD101220192002B35
:107B8000F2D001AA05F031FE0028EED1019B9C4203
:107B900018BF0920E9E713460A460146782005F098
:107BA000D0BD7FB50C461E46054610B90E2004B068
:107BB00070BD09B90720FAE70378802BFAD10123B9
:107BC0000393002AF2D0002EF0D0134603AA05F04A
:107BD0000CFE0028EBD1334603AA2146284605F0C7
:107BE00032FE0028E3D13378012B04D004D3022BDA
:107BF000E0D1102000E0062080B201900090089BA8
:107C000003AA2146284605F0E0FE0028CFD1039BB9
:107C10009C4218BF0920CAE713460A460146802045
:107C200005F08FBD7FB50C461D46064610B90E20E7
:107C300004B070BD09B90720FAE703787E2BFAD1AA
:107C400001230393002AF2D0002DF0D02B68002BE3
:107C5000EDD0134603AA05F0C8FD0028E8D1074B74
:107C6000009303AA2B462146304606F0D2F800289E
:107C7000DED1039B9C4218BF0920D9E7C59A0200B8
:107C800013460A4601467E2005F05BBD7FB50C46D3
:107C90001D46064610B90E2004B070BD09B9072074
:107CA000FAE70378752BFAD101230393002AF2D067
:107CB000002DF0D02B68002BEDD0134603AA05F061
:107CC00094FD0028E8D1074B009303AA2B462146D8
:107CD000304606F09EF80028DED1039B9C4218BF78
:107CE0000920D9E7E19B020013460A4601467520A8
:107CF00005F027BD7FB50C461E46054610B90E207F
:107D000004B070BD09B90720FAE70378872BFAD1D0
:107D100001230393002AF2D0134603AA05F065FD60
:107D20000028EDD10090334603AA2146284606F0EC
:107D300070F80028E4D1039B9C4218BF0920DFE7BC
:107D4000F0B587B00F4603901C46154632B32BB3EF
:107D500000232668059387238DF81330324605AB40
:107D600029460DF1130005F061FDA8B905AB3246B7
:107D7000294603A805F0FBFC70B9039B13B1059BD2
:107D8000236009E0064B0093324605AB294638468E
:107D900006F020F80028F2D007B0F0BD0E20FBE777
:107DA00025990200F0B50C4685B01646054610B977
:107DB0000E2005B0F0BD09B90720FAE707787D2F3E
:107DC000FAD101270397002BF2D00A4A009203AAA6
:107DD00006F01FF80028ECD10090334603AA214694
:107DE000284606F016F80028E3D1039B9C4218BFF2
:107DF0000920DEE7EBD702002DE9F04786B08A467E
:107E000003909146DDF838801D46002B3ED0B8F136
:107E1000000F3BD00023D8F80060059305AF7D2309
:107E20008DF8133032463B4629460DF1130005F01C
:107E3000FDFC044660B93B463246294603A805F0DE
:107E400096FC044620B9039B33B1059BC8F800306B
:107E5000204606B0BDE8F0870D4B009332463B4606
:107E60002946484605F0B6FF04460028F0D1B9F18E
:107E7000000FEAD0B9F80010009733462A46504662
:107E800005F009FE0028E0D00446E1E70E24DFE714
:107E9000C9D70200F0B585B00C461E460A9F0546BC
:107EA00010B90E2005B0F0BD09B90720FAE7037834
:107EB0007C2BFAD101230393002AF2D0002EF0D0BC
:107EC000002FEED00A4B0093134603AA05F0A1FF42
:107ED0000028E7D10097334603AA2146284605F03B
:107EE000C2FD0028DED1039B9C4218BF0920D9E7C0
:107EF000979A020013460A4601467C2005F021BCF1
:107F000073B50C461E46054610B90E2002B070BD72
:107F100009B90720FAE70378762BFAD101230193F8
:107F2000002AF2D0002EF0D0134601AA05F05DFC25
:107F30000028EBD1334601AA2146284605F083FCF0
:107F40000028E3D1019B9C4218BF0920DEE71346BD
:107F50000A460146762005F0F4BB0000F0B585B076
:107F60000C461F460A9E054610B90E2005B0F0BD0E
:107F700009B90720FAE70378852BFAD10123039387
:107F8000002AF2D0002EF0D0002FEED03368002B64
:107F9000EBD03B68002BE8D0134603AA05F025FC84
:107FA0000028E3D10C4B009303AA3B462146284608
:107FB00005F02FFF0028D9D1084B009303AA3346C0
:107FC0002146284605F025FF0028CFD1039B9C427F
:107FD00018BF0920CAE700BFE59D02007D9D020091
:107FE00013460A460146852005F0ABBB73B50C4627
:107FF0001E46054610B90E2002B070BD09B9072013
:10800000FAE70378822BFAD101230193002AF2D0F8
:10801000002EF0D0134601AA05F0E7FB0028EBD1B3
:10802000334601AA2146284605F00DFC0028E3D17D
:10803000019B9C4218BF0920DEE713460A46014611
:10804000822005F07EBB00007FB50C461E4605462B
:1080500010B90E2004B070BD09B90720FAE7037803
:10806000812BFAD101230393002AF2D0002EF0D005
:10807000134603AA05F0B9FB0028EBD1074B009388
:1080800003AA33462146284605F0C3FE0028E1D165
:10809000039B9C4218BF0920DCE700BF5BA40200E1
:1080A00013460A460146812005F04BBBF0B585B06A
:1080B0000C461F460A9E054610B90E2005B0F0BDBD
:1080C00009B90720FAE70378832BFAD10123039338
:1080D000002AF2D0002EF0D0002FEED0134603AAD3
:1080E00005F083FB0028E9D10B4B009303AA3B4624
:1080F0002146284605F08DFE0028DFD1009033464A
:1081000003AA2146284605F084FE0028D6D1039B09
:108110009C4218BF0920D1E7139E0200F0B587B03A
:108120000F4603901C46154632B32BB30023266836
:10813000059383238DF81330324605AB29460DF1A4
:10814000130005F073FBA8B905AB3246294603A816
:1081500005F00DFB70B9039B13B1059B236009E08B
:10816000064B0093324605AB2946384605F032FEF1
:108170000028F2D007B0F0BD0E20FBE775A4020086
:108180002DE9FF410A9E0C469846054618B90E2077
:1081900004B0BDE8F08109B90720F9E70378842B22
:1081A000FAD101230393002AF1D0B8F1000FEED0E9
:1081B000002EECD0134603AA05F017FB0028E7D1E8
:1081C0000B4F0097434603AA2146284605F021FE9F
:1081D0000028DDD10097334603AA2146284605F042
:1081E00018FE0028D4D1039B9C4218BF0920CFE77A
:1081F000C1A4020013460A460146842005F0A1BA34
:108200001FB50C46134610B90E2004B010BD09B9B5
:108210000720FAE702787B2AFAD101220392002B89
:10822000F2D01A68002AEFD0012901D80920ECE722
:108230000022009203AA05F0ECFD0028E5D1039B83
:108240009C42F3D1E1E70000F0B587B014460390FB
:108250001F460E4629B322B30023156805937B23DE
:108260008DF813302A4605AB0DF1130005F0DEFA48
:10827000A8B905AB2A46314603A805F078FA70B9CB
:10828000039B13B1059B236009E0074B00932A462B
:1082900005AB3146384605F09DFD0028F2D007B009
:1082A000F0BD0E20FBE700BFF59902001FB50C469C
:1082B000134610B90E2004B010BD09B90720FAE723
:1082C00002787A2AFAD101220392002BF2D0064AD0
:1082D000009203AA05F09DFD0028ECD1039B9C426F
:1082E00018BF0920E7E700BFE19B020013460A46DA
:1082F00001467A2005F025BAF0B585B00C461F4638
:108300000A9E054610B90E2005B0F0BD09B9072038
:10831000FAE703788E2BFAD101230393002AF2D0D7
:10832000002FF0D03B68002BEDD0134603AA05F0D8
:108330005CFA0028E8D100903B4603AA2146284673
:1083400005F067FD0028DFD1002EDCD03368002B5C
:10835000D9D00023009303AA33462146284605F0CE
:1083600058FD0028D0D1039B9C4218BF0920CBE7C1
:108370002DE9F04186B01446039098460E4671B33D
:108380006AB30023156805938E238DF813302A46AF
:1083900005AB0DF1130005F049FAE8B905AB2A4623
:1083A000314603A805F0E3F9B0B9039B13B1059B6F
:1083B000236011E00B4F009705AB2A46314640463B
:1083C00005F008FD40B9009705AB2A4631460C98E8
:1083D00005F000FD0028EAD006B0BDE8F0810E20CF
:1083E000FAE700BF2DD80200F7B5089E0C461F46DD
:1083F000054610B90E2003B0F0BD09B90720FAE711
:108400000378882BFAD101230193002AF2D0002FA0
:10841000F0D0002EEED0134601AA05F0E6F90028B0
:10842000E9D13B4601AA2146284605F00CFA00286E
:10843000E1D1334601AA2146284605F004FA002876
:10844000D9D1019B9C4218BF0920D4E713460A46A4
:108450000146882005F075B913B513460C4610B9CE
:108460000E2002B010BD09B90720FAE70278892A68
:10847000FAD101220192002BF2D001AA05F0B5F940
:108480000028EED1019B9C4218BF0920E9E7134662
:108490000A460146892005F054B900007FB50C4614
:1084A0001E46054610B90E2004B070BD09B907205C
:1084B000FAE703788A2BFAD101230393002AF2D03A
:1084C0001368002BEFD00B4B0093134603AA05F063
:1084D000A0FC0028E8D1084B009303AA33462146AC
:1084E000284605F096FC0028DED1039B9C4218BF6D
:1084F0000920D9E711A2020095DD020013460A46C1
:1085000001468A2005F01DB913460A4601468B2014
:1085100005F017B9F0B585B00C461F460A9E054612
:1085200010B90E2005B0F0BD09B90720FAE70378AD
:108530008C2BFAD101230393002AF2D01368002B6D
:10854000EFD0002FEDD03B68002BEAD0002EE8D012
:108550003368002BE5D0144B0093134603AA05F0B3
:1085600058FC0028DED1114B009303AA3B4621465C
:10857000284605F04EFC0028D4D10D4B009303AAE9
:1085800033462146284605F044FC0028CAD10B9BFF
:1085900003AA2146284605F056F90028C2D1039BBC
:1085A0009C4218BF0920BDE7359D020011A20200C0
:1085B000E19B020013460A4601468C2005F0C1B833
:1085C00013460A4601468D2005F0BBB82DE9FF4150
:1085D0000A9F0B9E0C469846054618B90E2004B01B
:1085E000BDE8F08109B90720F9E70378862BFAD1B5
:1085F00001230393002AF1D0B8F1000FEED0002F31
:10860000ECD0002EEAD0D8F80030002BE6D03B6842
:10861000002BE3D03368002BE0D0134603AA05F00B
:10862000E4F80028DBD1114B009303AA434621460E
:10863000284605F0EEFB0028D1D10D4B009303AA8C
:108640003B462146284605F0E4FB0028C7D1094BEC
:10865000009303AA33462146284605F0DAFB00289A
:10866000BDD1039B9C4218BF0920B8E77D9D020045
:108670001D9D0200CD9D020013460A46014686203C
:1086800005F05FB82DE9FF410A9F0B9E0C46984606
:10869000054618B90E2004B0BDE8F08109B90720DD
:1086A000F9E703787F2BFAD101230393002AF1D055
:1086B000B8F1000FEED0002FECD03B68002BE9D0D2
:1086C000002EE7D03368002BE4D0134603AA05F050
:1086D0008CF80028DFD1434603AA2146284605F03E
:1086E000B2F80028D7D10C4B009303AA3B46214691
:1086F000284605F08EFB0028CDD1084B009303AA35
:1087000033462146284605F084FB0028C3D1039B4D
:108710009C4218BF0920BEE7C59A0200E9A20200E8
:10872000F0B587B0144603901F460E4629B322B316
:108730000023156805937F238DF813302A4605AB77
:108740000DF1130005F072F8A8B905AB2A463146C1
:1087500003A805F00CF870B9039B13B1059B2360C7
:1087600009E0074B00932A4605AB3146384605F031
:1087700031FB0028F2D007B0F0BD0E20FBE700BFB0
:10878000ADA20200F7B5089E0C461F46054610B97B
:108790000E2003B0F0BD09B90720FAE70378772B64
:1087A000FAD101230193002EF2D0134601AA05F05D
:1087B0004AF80028EDD13B4601AA2146284605F09B
:1087C00014F80028E5D1334601AA2146284605F0D1
:1087D0003AF80028DDD1019B9C4218BF0920D8E758
:1087E00013460A460146772004F0ABBF30B5134666
:1087F00085B00C46A8B111B9072005B030BD02788C
:108800006D2AF9D104AA012542F8045D00250095DE
:1088100005F0FFFA0028F0D1039B9C4218BF092005
:10882000EBE70E20E9E7F0B585B0144601901E464F
:108830000F4611B90E2005B0F0BD002AFAD0002372
:10884000156803936D238DF80B302A4603AB0DF1A9
:108850000B0004F0EBFF0028EDD103AB2A463946AC
:1088600001A804F084FF0028E5D1019B13B1039B0C
:108870002360E0E7002EDDD003AB2A4639463046C0
:1088800001F0E1F90028F2D0D5E7000030B5134639
:1088900085B00C46A8B111B9072005B030BD0278EB
:1088A0006C2AF9D104AA012542F8045D064D009511
:1088B00005F0AFFA0028F0D1039B9C4218BF0920B5
:1088C000EBE70E20E9E700BF359D020013460A469C
:1088D00001466C2004F035BF30B5134685B00C4618
:1088E000A8B111B9072005B030BD0278702AF9D1BE
:1088F00004AA012542F8045D064D009505F089FAA9
:108900000028F0D1039B9C4218BF0920EBE70E2002
:10891000E9E700BF39A7020013460A460146702066
:1089200004F00FBF30B5134685B00C46A8B111B99D
:10893000072005B030BD0278712AF9D104AA0125BB
:1089400042F8045D064D009505F063FA0028F0D169
:10895000039B9C4218BF0920EBE70E20E9E700BF0C
:1089600039A70200F0B587B0144603901F460E46A3
:1089700029B322B300231568059371238DF81330B2
:108980002A4605AB0DF1130004F050FFA8B905AB62
:108990002A46314603A804F0EAFE70B9039B13B1DE
:1089A000059B236009E0074B00932A4605AB31463F
:1089B000384605F00FFA0028F2D007B0F0BD0E20BF
:1089C000FBE700BFE9A602002DE9FF470D4616466A
:1089D0009846074620B90E24204604B0BDE8F0872B
:1089E00009B90724F8E702786E2AFAD10122039226
:1089F000002EF0D03268002AEDD01268002AEAD0AA
:108A000003AA04F020FF04460028E5D10DF10B0372
:108A100003AA2946384604F016FF04460028DBD195
:108A20009DF80B30012B19D1DFF838A0D6F8009053
:108A3000064698F800309E4204D3039B9D4218BF1F
:108A40000924C9E7CDF800A009EB860303AA29464B
:108A5000384605F0DEF918B90136EAE73060ECE790
:108A60000446B9E7359D020013460A4601466E20CA
:108A700004F067BE2DE9F04F85B00D4690461F46C5
:108A8000DDF83890064620B90E24204605B0BDE832
:108A9000F08F09B90724F8E703786F2BFAD1012387
:108AA0000393002AF0D01368002BEDD01B68002B35
:108AB000EAD0002FE8D03B68002BE5D01B68002BE4
:108AC000E2D04B4603AA04F0BEFE04460028DCD1E7
:108AD0000DF10B0303AA2946304604F0B4FE044608
:108AE0000028D2D19DF80B30012B33D1DFF88CB0A8
:108AF000D8F800A0804699F8003098451BD30DF1B6
:108B00000B0303AA2946304604F09DFE04460028C4
:108B1000BBD19DF80B30012B2BD1DFF864A0D7F827
:108B20000080074699F800309F4216D3039B9D4270
:108B300018BF0924A9E7CDF800B00AEB880303AAFF
:108B40002946304605F065F9044600289DD108F114
:108B50000108D0E7C8F80000D1E7CDF800A008EB85
:108B6000870303AA2946304605F053F918B901379F
:108B7000D8E73860DAE7044687E700BFA998020023
:108B80001D9D020013460A4601466F2004F0D9BD20
:108B9000F0B50D4685B01F46064640B311B9072013
:108BA00005B0F0BD0378902BF9D104AC012344F853
:108BB000043D1346224604F018FE0028F0D10D4B68
:108BC000009322463B462946304605F022F900280C
:108BD000E6D100900A9B22462946304605F019F955
:108BE0000028DDD1039B9D4218BF0920D8E70E2045
:108BF000D6E700BFE9A80200F0B587B0144603909D
:108C00001F460E4629B322B300231568059390230F
:108C10008DF813302A4605AB0DF1130004F006FE63
:108C2000A8B905AB2A46314603A804F0A0FD70B9E7
:108C3000039B13B1059B236009E0074B00932A4671
:108C400005AB3146384605F0C5F80028F2D007B02C
:108C5000F0BD0E20FBE700BF33A902007FB50C4634
:108C60001D46064610B90E2004B070BD09B9072094
:108C7000FAE703788F2BFAD101230393002AF2D06D
:108C8000002DF0D02B68002BEDD0134603AA04F082
:108C9000ACFD0028E8D1074B009303AA2B462146E0
:108CA000304605F0B6F80028DED1039B9C4218BF81
:108CB0000920D9E79DA9020013460A4601468F20E4
:108CC00004F03FBDF0B585B00C461F460A9E054630
:108CD00010B90E2005B0F0BD09B90720FAE70378F6
:108CE000722BFAD101230393002AF2D01368002BD0
:108CF000EFD0002FEDD03B68002BEAD0002EE8D05B
:108D00003368002BE5D0104B0093134603AA05F0FF
:108D100080F80028DED10D4B009303AA3B46214684
:108D2000284605F076F80028D4D1094B009303AA11
:108D300033462146284605F06CF80028CAD1039B2B
:108D40009C4218BF0920C5E747D80200CDA9020000
:108D500019A50200F0B587B0144603901F460E46D1
:108D600029B322B300231568059372238DF81330BD
:108D70002A4605AB0DF1130004F058FDA8B905AB68
:108D80002A46314603A804F0F2FC70B9039B13B1E4
:108D9000059B236009E0074B00932A4605AB31464B
:108DA000384605F017F80028F2D007B0F0BD0E20C5
:108DB000FBE700BF2DD8020013B513460C4610B9CF
:108DC0000E2002B010BD09B90720FAE70278912AF7
:108DD000FAD101220192002BF2D001AA04F0E1FCA9
:108DE0000028EED1019B9C4218BF0920E9E71346F9
:108DF0000A460146912004F0A4BC40B149B1037871
:108E0000922B06D1012914BF0920002070470E20A3
:108E100070470720704713460A460146922004F027
:108E200090BC30B4029C1CB110B1A44630BC604769
:108E30000E2030BC70470000F0B5154685B01E46C8
:108E4000044630B32AB323B303881D2B23D13768DC
:108E5000ADF80A300022039203AB3A4629460DF1E1
:108E60000A0004F0B1FC90B903AB3A462946201D34
:108E700004F0AAFC58B9094B00933A4603AB2946C3
:108E800004F10800FFF7CDFF08B9039B336005B07C
:108E9000F0BD0E20FBE70720F9E700BF059F0200A9
:108EA000F7B515461E46044620B31AB313B303881C
:108EB000172B21D13768ADF802300022019201ABA7
:108EC0003A4629460DF1020004F07EFC80B901AB60
:108ED0003A462946201D04F077FC48B901AB3A46D2
:108EE000294604F1080004F0A1FC08B9019B336095
:108EF00003B0F0BD0E20FBE70720F9E72DE9F041B4
:108F0000164686B098460546002849D0002A47D024
:108F1000002B45D00388192B44D1D8F80070ADF848
:108F20000E300022049204AB3A4631460DF10E0099
:108F300004F04AFC0446D0B904AB3A463146281D39
:108F400004F042FC044690B9174B00933A4604AB38
:108F5000314605F10800FFF764FF044638B905A95A
:108F6000A88804F0ADFF30B1049BC8F8003020465B
:108F700006B0BDE8F081314605980C4E0C4B0093CD
:108F80003A464FF4967704AB07FB0060FFF749FFC2
:108F900020B9A88804F07EFF0028E5D00446E6E763
:108FA0000E24E4E70724E2E719A00200ACB3002096
:108FB000ADA20200F0B5154685B01E46044630B39A
:108FC0002AB323B30388122B23D13768ADF80A30B4
:108FD0000022039203AB3A4629460DF10A0004F041
:108FE000F3FB90B903AB3A462946201D04F0ECFB95
:108FF00058B9094B00933A4603AB294604F10800DF
:10900000FFF70FFF08B9039B336005B0F0BD0E20DA
:10901000FBE70720F9E700BFC5A10200F0B5154640
:1090200085B01E46044630B32AB323B303881F2BF2
:1090300023D13768ADF80A300022039203AB3A46D9
:1090400029460DF10A0004F0BFFB90B903AB3A4684
:109050002946201D04F0B8FB58B9094B00933A4645
:1090600003AB294604F10800FFF7DBFE08B9039BB8
:10907000336005B0F0BD0E20FBE70720F9E700BF25
:10908000E1A10200F0B5154685B01E46044630B396
:109090002AB323B303881A2B23D13768ADF80A30DB
:1090A0000022039203AB3A4629460DF10A0004F070
:1090B0008BFB90B903AB3A462946201D04F084FB94
:1090C00058B9094B00933A4603AB294604F108000E
:1090D000FFF7A7FE08B9039B336005B0F0BD0E2073
:1090E000FBE70720F9E700BFADA00200F0B5154689
:1090F00085B01E46044630B32AB323B30388102B31
:1091000023D13768ADF80A300022039203AB3A4608
:1091100029460DF10A0004F057FB90B903AB3A461B
:109120002946201D04F050FB58B9094B00933A46DC
:1091300003AB294604F10800FFF773FE08B9039B4F
:10914000336005B0F0BD0E20FBE70720F9E700BF54
:1091500025A102002DE9F041164686B01F460546BE
:1091600000283AD0002A38D0002B36D00388112BA3
:1091700035D1D7F80080ADF80E300022049204AB50
:10918000424631460DF10E0004F01EFB0446C8B9FC
:1091900004AB42463146281D04F016FB044688B94C
:1091A000104B0093424604AB314605F10800FFF72F
:1091B00038FE044630B905A9A88804F081FE28B11C
:1091C000049B3B60204606B0BDE8F081A88804F00F
:1091D00061FE0028F4D00446F4E70E24F2E70724E9
:1091E000F0E700BFFDA10200F7B515461E46044694
:1091F00020B31AB313B30388162B21D13768ADF807
:1092000002300022019201AB3A4629460DF10200DC
:1092100004F0DAFA80B901AB3A462946201D04F081
:10922000D3FA48B901AB3A46294604F1080004F0E4
:10923000FDFA08B9019B336003B0F0BD0E20FBE7D7
:109240000720F9E7F0B5144685B01F46054600280B
:1092500033D0002A31D083B30388182B2FD13E6836
:10926000ADF80A300022039203AB324621460DF1DD
:109270000A0004F0A9FAF0B92B7BC3F300038DF8C0
:109280000930324603AB2146281D04F09DFA90B9FF
:109290000C4B0093324603AB2146A86804F09AFDBC
:1092A00048B903AB324621460DF1090004F0BEFA7D
:1092B00008B9039B3B6005B0F0BD0E20FBE707201B
:1092C000F9E700BF019D02002DE9FF4114469846D1
:1092D0000546B0B3AAB3A3B30388152B33D1D8F88E
:1092E0000060ADF80A30002203AF03923B463246DD
:1092F00021460DF10A0004F067FAF8B9AB7BC3F31D
:1093000000038DF8093032463B462146281D04F003
:109310005BFA98B9009733462246062105F108000A
:1093200004F0B9FB50B93B46324621460DF1090025
:1093300004F07CFA10B9039BC8F8003004B0BDE813
:10934000F0810E20FAE70720F8E7F7B515461F462B
:10935000044660B35AB353B303881C2B29D13E682B
:10936000ADF802300022019201AB324629460DF1E0
:10937000020004F029FAC0B901AB32462946201D8B
:1093800004F022FA88B901AB3246294604F10800FC
:1093900004F04CFA48B901AB3246294604F1090001
:1093A00004F044FA08B9019B3B6003B0F0BD0E2005
:1093B000FBE70720F9E70000F0B5154685B01F462A
:1093C0000446002838D0002A36D0002B34D0038839
:1093D000202B33D13E68ADF80A300022039203AB54
:1093E000324629460DF10A0004F0EEF910BB03AB3A
:1093F00032462946201D04F0E7F9D8B903AB3246BE
:10940000294604F1080004F011FA98B90C4B0093B6
:10941000324603AB294604F10A00FFF702FD48B9C2
:1094200003AB3246294604F1090004F0FFF908B9FC
:10943000039B3B6005B0F0BD0E20FBE70720F9E77A
:10944000479C0200F0B5154685B01E46044630B371
:109450002AB323B30388142B23D13768ADF80A301D
:109460000022039203AB3A4629460DF10A0004F0AC
:10947000ABF990B903AB3A462946201D04F0A4F994
:1094800058B9094B00933A4603AB294604F108004A
:10949000FFF7C7FC08B9039B336005B0F0BD0E2091
:1094A000FBE70720F9E700BFC9A00200F0B51546A9
:1094B00085B01E46044630B32AB323B30388132B6A
:1094C00023D13768ADF80A300022039203AB3A4645
:1094D00029460DF10A0004F077F990B903AB3A463A
:1094E0002946201D04F070F958B9094B00933A46FB
:1094F00003AB294604F10800FFF793FC08B9039B6E
:10950000336005B0F0BD0E20FBE70720F9E700BF90
:10951000A9A10200F0B5154685B01E46044630B339
:109520002AB323B303881E2B23D13768ADF80A3042
:109530000022039203AB3A4629460DF10A0004F0DB
:1095400043F990B903AB3A462946201D04F03CF993
:1095500058B9094B00933A4603AB294604F1080079
:10956000FFF75FFC08B9039B336005B0F0BD0E2028
:10957000FBE70720F9E700BF25A302002DE9F3412F
:1095800016469846054600283BD0002A39D0002BC5
:1095900037D003881B2B36D1D8F80070ADF80230D5
:1095A0000022019201AB3A4631460DF1020004F06F
:1095B0000BF90446B0B901AB3A463146281D04F018
:1095C00003F9044670B901AB3A46314605F108008B
:1095D00004F02CF9044628B92B7A012B06D0019B04
:1095E000C8F80030204602B0BDE8F08101AB3A4631
:1095F000314605F1100004F0E7F80028EFD00446EA
:10960000F0E70E24EEE70724ECE7F7B515461F4612
:109610000446002834D09AB393B30388222B31D167
:109620003E68ADF802300022019201AB3246294675
:109630000DF1020004F0C8F800BB01AB3246294628
:10964000201D04F0C1F8C8B901AB3246294604F127
:10965000080004F0EBF888B901AB3246294604F162
:10966000090004F0E3F848B901AB3246294604F199
:109670000A0004F0DBF808B9019B3B6003B0F0BDC1
:109680000E20FBE70720F9E7F0B5154685B01E462A
:10969000044630B32AB323B30388212B23D1376880
:1096A000ADF80A300022039203AB3A4629460DF189
:1096B0000A0004F089F890B903AB3A462946201D08
:1096C00004F082F858B9094B00933A4603AB294697
:1096D00004F10800FFF7A5FB08B9039B336005B050
:1096E000F0BD0E20FBE70720F9E700BF6FA90200DD
:1096F000F0B5154685B01E46044630B32AB323B3F1
:109700000388232B23D13768ADF80A300022039257
:1097100003AB3A4629460DF10A0004F055F890B91A
:1097200003AB3A462946201D04F04EF858B9094BC0
:1097300000933A4603AB294604F10800FFF771FB9A
:1097400008B9039B336005B0F0BD0E20FBE707208E
:10975000F9E700BF9FA80200F0B5154685B01E4688
:10976000044630B32AB323B30388242B23D13768AC
:10977000ADF80A300022039203AB3A4629460DF1B8
:109780000A0004F021F890B903AB3A462946201D9F
:1097900004F01AF858B9094B00933A4603AB29462E
:1097A00004F10800FFF73DFB08B9039B336005B0E7
:1097B000F0BD0E20FBE70720F9E700BF9FA80200DD
:1097C00030B4029C1CB110B1A44630BC60470E20DE
:1097D00030BC704730B4029C1CB113B1A44630BCFD
:1097E00060470E2030BC7047F7B5044617461D464B
:1097F0000E4699B193B188B1DFF828E0CDF800E0CA
:10980000FFF7DEFF40B9064B00933A462B46314640
:1098100004F11200FFF7D4FF03B0F0BD0E20FBE708
:10982000D59C02007F9C0200F7B50F4614461D46EA
:10983000064698B192B18BB1DFF828E0CDF800E090
:10984000FFF7C8FF40B9064B0093224605F112030B
:1098500039463046FFF7BEFF03B0F0BD0E20FBE7F0
:10986000E59D02007D9D0200F7B5044617461D46A2
:109870000E4699B193B188B1DFF828E0CDF800E049
:10988000FFF79EFF40B9064B00933A462B46314600
:1098900004F11000FFF794FF03B0F0BD0E20FBE7CA
:1098A000479C02002B9C0200F7B50F4614461D464C
:1098B000064698B192B18BB1DFF828E0CDF800E010
:1098C000FFF788FF40B9064B0093224605F11003CD
:1098D00039463046FFF77EFF03B0F0BD0E20FBE7B0
:1098E000359D02001D9D020013B559B153B148B119
:1098F000047802A804F00F0400F8014D03F096FF6D
:1099000002B010BD0E20FBE713B549B143B138B129
:10991000047802A800F8014D03F088FF02B010BDE2
:109920000E20FBE7F7B5044617461D460E4689B1E3
:1099300083B178B1DFF824E0CDF800E0FFF740FF15
:1099400048B92B463A463146601C03B0BDE8F040AA
:1099500003F06CBF0E2003B0F0BD00BF09990200F8
:109960002DE9FF41044617461D460E4669B363B311
:1099700058B390F800E004A800F801ED03F056FF9A
:1099800000BB2B463A463146601C03F04FFFC8B976
:109990002B463A463146A01C03F048FF90B9DFF849
:1099A0003080CDF800802B463A463146E01CFFF768
:1099B00007FF38B9CDF800802B463A463146201DC6
:1099C000FFF7FEFE04B0BDE8F0810E20FAE700BF0D
:1099D000D599020013B559B153B148B1047802A822
:1099E00004F00F0400F8014D03F020FF02B010BD99
:1099F0000E20FBE72DE9F041044617461D460E46B2
:109A0000D1B1CBB1C0B103F0DFFEB0B92B463A46BD
:109A10003146A01C03F0D8FE78B92B463A463146B1
:109A2000201D03F0D1FE40B92B463A463146A01D19
:109A3000BDE8F04103F0C8BE0E20BDE8F08113B5CB
:109A400081B17BB170B10478008804F07F04C0F369
:109A5000C81044EAC01402A820F8024D03F0B4FE76
:109A600002B010BD0E20FBE72DE9F0410446174679
:109A70001D460E4661B15BB150B103F0A5FE40B981
:109A80002B463A463146A01CBDE8F04103F0CEBE5D
:109A90000E20BDE8F08137B51C4688B182B17BB19C
:109AA0000DF1070303F0CFFE40B99DF8072023789E
:109AB00062F30303120962F30713237003B030BD8E
:109AC0000E20FBE72DE9FF410F4615461C460646D2
:109AD000002842D0002A40D0002B3ED00DF10F03C9
:109AE00003F0B1FEB0BB631C2A463946304603F092
:109AF000AAFE78BBA31C2A463946304603F0A3FED3
:109B000040BBDFF85C80CDF80080E31C2A46394674
:109B10003046FFF75FFEE8B9CDF80080231D2A46E6
:109B200039463046FFF756FEA0B99DF80F2023783E
:109B3000510862F3000361F34103910861F382036A
:109B4000D10861F3C303110961F30613D20962F36B
:109B5000C713237004B0BDE8F0810E20FAE700BF00
:109B6000659B020037B51C46B8B1B2B1ABB10DF17F
:109B7000070303F068FE70B99DF8072023785108A9
:109B800062F3000361F34103910861F38203D20899
:109B900062F3C303237003B030BD0E20FBE7F7B5BB
:109BA0000F4615461C460646C0B1BAB1B3B103F024
:109BB0004AFE88B90DF107032A463946304603F0BC
:109BC00042FE48B99DF80720637862F30003C2F3B0
:109BD000400262F34103637003B0F0BD0E20FBE767
:109BE0002DE9F0410F4614461D460646D0B1CAB1D4
:109BF000C3B103F0FAFDB0B9AB1C2246394630467A
:109C000003F0F3FD78B92B1D22463946304603F0A8
:109C1000ECFD40B9AB1D224639463046BDE8F04167
:109C200003F0E3BD0E20BDE8F08113B549B143B1A7
:109C300038B1009313460A46102103F02CFF02B0FE
:109C400010BD0E20FBE7F0B5044685B017461D4653
:109C50000E4691B18BB180B190F800E004A800F8F5
:109C600001ED03F0E3FD30B900953B463246062195
:109C7000601C03F010FF05B0F0BD0E20FBE7F0B54F
:109C8000074685B016461D460C4699B193B188B17A
:109C9000009313460A46102103F0FDFE40B904A8C4
:109CA0003B7C00F8013D32462B46214603F0BEFDC9
:109CB00005B0F0BD0E20FBE713B549B143B138B193
:109CC000009313460A46102103F0E5FE02B010BDD2
:109CD0000E20FBE7F7B5044617461D460E4669B150
:109CE00063B158B103F070FD30B900953B46324680
:109CF0000821A01C03F0CFFE03B0F0BD0E20FBE74F
:109D000013B549B143B138B1009313460A46402117
:109D100003F0C1FE02B010BD0E20FBE737B538B12D
:109D200032B12BB11024009403F0CEFE03B030BD4D
:109D30000E20FBE7F0B50F4685B015461C460646DB
:109D4000D0B1CAB1C3B10DF10F0303F07CFD88B9E6
:109D5000062300932A46631C3946304603F0B4FEBE
:109D600040B99DF80F20237862F30003520862F394
:109D70004703237005B0F0BD0E20FBE7F0B50F469A
:109D800085B015461C460646F0B1EAB1E3B14FF086
:109D9000100ECDF800E003F097FE98B90DF10F0317
:109DA0002A463946304603F04EFD58B99DF80F203B
:109DB000237C510862F3000361F34103920862F3CC
:109DC0008703237405B0F0BD0E20FBE737B538B12B
:109DD00032B12BB11024009403F076FE03B030BDF5
:109DE0000E20FBE7F7B50F4614461D46064670B138
:109DF0006AB163B103F0F9FC38B908230093224635
:109E0000AB1C3946304603F05FFE03B0F0BD0E20B8
:109E1000FBE737B538B132B12BB14024009403F0E1
:109E200053FE03B030BD0E20FBE70000F7B504463B
:109E300017461D460E4619B313B308B311480090D8
:109E4000206803F0C7FFC8B90F4B00933A462B4672
:109E50003146606803F0BEFF80B90C4B00933A4670
:109E60002B463146A06803F0B5FF38B9084B009384
:109E70003A462B463146E06803F0ACFF03B0F0BD34
:109E80000E20FBE7E997020069980200B99C0200E6
:109E9000019D0200F7B50F4614461D46064630B335
:109EA0002AB323B3DFF858E0CDF800E003F0B1FFA8
:109EB000D8B9104B009322462B1D3946304603F08B
:109EC000A8FF90B90C4B0093224605F108033946D0
:109ED000304603F09EFF40B9084B0093224605F13F
:109EE0000C033946304603F094FF03B0F0BD0E205A
:109EF000FBE700BFA9980200CD9D0200139E02005F
:109F0000299802002DE9FF41044617461D460E46DA
:109F1000002976D0002B74D0002872D0DFF8F0E052
:109F2000CDF800E0FFF74CFC002867D1DFF8E480B3
:109F3000CDF800802B463A463146A01CFFF740FC86
:109F400000285BD1CDF800802B463A46314604F11B
:109F50000900FFF735FC002850D12B463A46314620
:109F600004F1100003F062FC002847D12B463A466A
:109F7000314604F1110003F059FC00283ED12B4674
:109F80003A46314604F1120003F050FCB0BB2B46B8
:109F90003A46314604F1130003F048FC70BB2B46EF
:109FA0003A46314604F1140003F040FC30BB2B4626
:109FB0003A46314604F1150003F038FCF0B9E38A63
:109FC00004A8C3F30B0320F8023D3A462B46314662
:109FD00003F0FAFB90B90C4B00933A462B463146FE
:109FE00004F11800FFF7ECFB40B9084B00933A4628
:109FF0002B46314604F12000FFF7E2FB04B0BDE838
:10A00000F0810E20FAE700BF5DDD0200699A0200D0
:10A010003F9A0200479C02002DE9FF410446174683
:10A020001D460E46E1B3DBB3D0B390F801E00EF06D
:10A030000F0E8DF80FE003F0F9FB70BB2B463A468C
:10A0400031460DF10F0003F0F1FB30BBDFF8548017
:10A05000CDF800802B463A463146A01CFFF7B0FBF6
:10A06000D8B9CDF800802B463A463146E01CFFF7C0
:10A07000A7FB90B9DFF83080CDF800802B463A4638
:10A080003146201DFFF79CFB38B9CDF800802B46E8
:10A090003A463146601DFFF793FB04B0BDE8F081FE
:10A0A0000E20FAE7E9980200D599020037B539B1D8
:10A0B00033B128B1034C0094FFF782FB03B030BDED
:10A0C0000E20FBE7259902002DE9FF410546904649
:10A0D0001C460F46F9B1F3B1E8B1867C06F00706DD
:10A0E0008DF80F600D4E0096FFF76AFB80B90C4BA0
:10A0F000009342462346394605F10800FFF760FB0E
:10A1000030B92346424639460DF10F0003F08EFB6D
:10A1100004B0BDE8F0810E20FAE700BF479C0200C2
:10A12000D59C0200F7B5044617461D460E4699B366
:10A1300093B388B3DFF86CE0CDF800E0FFF740FBA5
:10A1400058BB2B463A463146E01D03F06FFB20BB5F
:10A15000134B00933A462B46314604F10800FFF7B3
:10A160002FFBD0B92B463A46314604F1100003F0DC
:10A170005DFB90B92B463A46314604F1180003F0D6
:10A1800023FB50B92B463A46314604F1200003B078
:10A19000BDE8F04003F018BB0E2003B0F0BD00BFD7
:10A1A000F5990200479C020037B539B133B128B1A7
:10A1B000034C0094FFF704FB03B030BD0E20FBE717
:10A1C0006199020037B539B133B128B1034C00941D
:10A1D000FFF7F6FA03B030BD0E20FBE7F599020059
:10A1E00037B539B133B128B1034C0094FFF7E8FA21
:10A1F00003B030BD0E20FBE7F599020030B421B169
:10A200001BB110B130BC03F011BB0E2030BC704745
:10A21000F0B50F4685B015461C460646002843D0CB
:10A22000002A41D0002B3FD00DF10B0303F00BFBB4
:10A23000C0BB9DF80B302278590863F3000261F32C
:10A240004102990861F38202DB0863F3C4022346EA
:10A25000394603F8012B30462A4603F0F4FA08BBCE
:10A2600004AB04F1080243F8042D05220192009288
:10A2700039462A46304603F0A8FB98B9A31C2A4663
:10A280003946304603F0B1FA60B9231D2A463946F3
:10A29000304603F0AAFA28B9A31D2A4639463046AB
:10A2A00003F0A3FA05B0F0BD0E20FBE72DE9F34162
:10A2B000044690461D460F4689B183B178B1094ED8
:10A2C0000096FFF77DFA38B900962B46424639468C
:10A2D00004F11000FFF774FA02B0BDE8F0810E201F
:10A2E000FAE700BF2D9E02002DE9F341884614468F
:10A2F0001D46074688B182B17BB1094E0096FFF733
:10A3000069FA38B9009605F11003224641463846ED
:10A31000FFF760FA02B0BDE8F0810E20FAE700BF57
:10A32000959E020013B559B153B148B1047802A803
:10A3300004F00F0400F8014D03F078FA02B010BDEC
:10A340000E20FBE7F7B5044617461D460E4669B1D9
:10A3500063B158B103F038FA30B900953B46324644
:10A360000521A01C03F097FB03B0F0BD0E20FBE716
:10A37000F7B50F4614461D46064670B16AB163B183
:10A3800003F033FA38B9052300932246AB1C394653
:10A39000304603F099FB03B0F0BD0E20FBE7000050
:10A3A000F7B5044617461D460E46A9B1A3B198B1AC
:10A3B00003F00AFA70B92B463A463146A01C03F066
:10A3C00003FA38B9054B00933A462B46314660688C
:10A3D00003F000FD03B0F0BD0E20FBE7C9D702007B
:10A3E000F7B50F4614461D460646A8B1A2B19BB16B
:10A3F00003F0FBF970B9AB1C22463946304603F036
:10A40000F4F938B9054B009322462B1D39463046E6
:10A4100003F0FFFC03B0F0BD0E20FBE7EBD702001A
:10A4200007B559B153B148B10093006813460A46C5
:10A43000062103F088FA03B05DF804FB0E20FAE76A
:10A4400037B540B13AB133B106240194009403F01A
:10A45000BCFA03B030BD0E20FBE737B538B132B1DE
:10A460002BB12024009403F02FFB03B030BD0E204D
:10A47000FBE70000F7B5044617461D460E46D1B16E
:10A48000CBB1C0B1DFF834E0CDF800E0FFF798F9C8
:10A4900078B900953B4632461021E01D03F0FBFAE7
:10A4A00038B900953B463246102104F1170003F0FD
:10A4B000F2FA03B0F0BD0E20FBE700BF479C02009C
:10A4C0002DE9F3410F4614461D460646F8B1F2B198
:10A4D000EBB1DFF840E0CDF800E0FFF77BF998B989
:10A4E0004FF01008CDF80080EB1D2246394630466B
:10A4F00003F0EAFA40B9CDF8008005F117032246CF
:10A500003946304603F0E0FA02B0BDE8F0810E2093
:10A51000FAE700BF359D0200F0B50F4685B015463D
:10A520001C460646002869D0002A67D0002B65D05B
:10A53000DFF8D0E0CDF800E0FFF74CF900285BD160
:10A540002F4B00932A46231D3946304603F061FC09
:10A55000002851D104F108032A463946304603F059
:10A5600020F9002848D104F10C032A463946304628
:10A5700003F03BF900283FD104F10E032A46394687
:10A58000304603F060F9B8BB04AB04F10F0243F8A6
:10A59000042D05220192009239462A46304603F0E6
:10A5A00014FA48BB04F114032A463946304603F036
:10A5B0004AF908BB04F115032A463946304603F030
:10A5C00042F9C8B904F116032A463946304603F069
:10A5D0003AF988B90DF10B032A463946304603F0A3
:10A5E00032F948B99DF80B20E37D62F30303C2F30F
:10A5F000001262F30413E37505B0F0BD0E20FBE713
:10A60000359D02009F9B02002DE9F041044617464C
:10A610001D460E4661B15BB150B103F0D5F840B9AB
:10A620002B463A463146A01CBDE8F04103F0CCB8B9
:10A630000E20BDE8F0812DE9F0410F4614461D467D
:10A64000064660B15AB153B103F0CFF840B9AB1C24
:10A65000224639463046BDE8F04103F0C6B80E2028
:10A66000BDE8F0812DE9FF410F4615461C46064620
:10A67000A8B3A2B39BB3DFF86CE0B3F80A80CDF8BF
:10A6800000E0FFF7A7F838BB0DF10F032A46394663
:10A69000304603F0D8F8F8B963789DF80F2062F3DC
:10A6A000010363702A4604F108033946304603F07B
:10A6B0009CF888B904F10A032A463946304603F06B
:10A6C00094F848B923890193CDF80080231D2A46C8
:10A6D0003946304603F079F904B0BDE8F0810E2028
:10A6E000FAE700BF979A0200F7B5044617461D46E1
:10A6F0000E46E1B1DBB1D0B103F098F8A8B92B4612
:10A700003A463146601C03F091F870B92B463A4640
:10A710003146A01C03F058F838B9064B00933A466E
:10A720002B463146606803F055FB03B0F0BD0E20A8
:10A73000FBE700BF2B9C0200F7B50F4614461D46F1
:10A740000646E0B1DAB1D3B103F07DF8A8B96B1CCD
:10A7500022463946304603F076F870B9AB1C2246E3
:10A760003946304603F041F838B9064B009322468B
:10A770002B1D3946304603F04CFB03B0F0BD0E20D4
:10A78000FBE700BF1D9D020013B559B153B148B19D
:10A79000047802A8C4F3000400F8014D03F046F861
:10A7A00002B010BD0E20FBE737B51C4670B16AB190
:10A7B00063B10DF1070303F046F828B923789DF83B
:10A7C000072062F30003237003B030BD0E20FBE7C7
:10A7D000F7B50F4615461C460646A0B19AB193B18F
:10A7E00003F003F868B90DF107032A4639463046ED
:10A7F00003F029F828B9A3789DF8072062F3000335
:10A80000A37003B0F0BD0E20FBE72DE9F0410F4629
:10A8100014461D46064660B15AB153B103F013F811
:10A8200040B9AB1C224639463046BDE8F04102F043
:10A83000DCBF0E20BDE8F081F7B50F4615461C467B
:10A84000064650B34AB343B3013302F0FCFF10BBDA
:10A85000A31C2A463946304602F0F5FFD8B9E31C5E
:10A860002A463946304602F0EEFFA0B923462A4672
:10A870003946304602F0E7FF68B90DF107032A4672
:10A880003946304602F0DFFF28B923799DF80720CA
:10A8900062F30003237103B0F0BD0E20FBE72DE946
:10A8A000F041044617461D460E46D1B1CBB1C0B1AA
:10A8B00002F08AFFB0B92B463A463146A01C02F09E
:10A8C00083FF78B92B463A463146201D02F07CFFC3
:10A8D00040B92B463A463146A01DBDE8F04102F092
:10A8E00073BF0E20BDE8F0812DE9F0410F461446FC
:10A8F0001D460646D0B1CAB1C3B102F076FFB0B969
:10A90000AB1C22463946304602F06FFF78B92B1D4A
:10A9100022463946304602F068FF40B9AB1D224658
:10A9200039463046BDE8F04102F05FBF0E20BDE879
:10A93000F0812DE9F041044617461D460E4699B1B7
:10A9400093B188B102F040FF78B92B463A463146C0
:10A95000A01C02F039FF40B92B463A463146201D73
:10A96000BDE8F04102F030BF0E20BDE8F0812DE9D6
:10A97000F041044617461D460E4661B15BB150B129
:10A9800002F054FF40B92B463A463146601CBDE800
:10A99000F04102F04BBF0E20BDE8F0812DE9F041FF
:10A9A0000F4614461D46064660B15AB153B102F037
:10A9B0004AFF40B96B1C224639463046BDE8F0419B
:10A9C00002F041BF0E20BDE8F08100002DE9F34107
:10A9D000884614461D46074688B182B17BB1094EB0
:10A9E0000096FEF7F7FE38B9009605F108032246F7
:10A9F00041463846FEF7EEFE02B0BDE8F0810E207B
:10AA0000FAE700BF95DD020013B559B153B148B163
:10AA1000047802A804F07F0400F8014D02F006FF5C
:10AA200002B010BD0E20FBE737B51C4600B3FAB1EB
:10AA3000F3B10DF1070302F006FFB8B99DF8072046
:10AA40002378510862F3000361F34103910861F335
:10AA50008203D10861F3C303110961F3041351099F
:10AA600061F34513920962F38613237003B030BD7E
:10AA70000E20FBE737B51C4688B182B17BB10DF1E2
:10AA8000070302F0E0FE40B99DF80720237862F347
:10AA90000003520862F34103237003B030BD0E205F
:10AAA000FBE730B420B11AB113B130BC02F09DBE47
:10AAB0000E2030BC704700007FB50C461D46064690
:10AAC00010B90E2004B070BD09B90720FAE7037869
:10AAD0009F2BFAD101230393002AF2D0002DF0D04E
:10AAE0002B68002BEDD0134603AA02F07EFE00284F
:10AAF000E8D1074B009303AA2B462146304603F0CA
:10AB000088F90028DED1039B9C4218BF0920D9E7B1
:10AB1000A9B6020013460A4601469F2002F011BE64
:10AB2000F0B585B00C461F460A9E054610B90E20AA
:10AB300005B0F0BD09B90720FAE70378A02BFAD1D8
:10AB400001230393002AF2D0002FF0D03B68002BA2
:10AB5000EDD0002EEBD03368002BE8D0134603AACB
:10AB600002F043FE0028E3D10C4B009303AA3B46BE
:10AB70002146284603F04DF90028D9D1084B00930F
:10AB800003AA33462146284603F043F90028CFD1D3
:10AB9000039B9C4218BF0920CAE700BF75DB020077
:10ABA000A9B6020013460A460146A02002F0C9BD1C
:10ABB000F0B585B00C461D460A9F064610B90E201A
:10ABC00005B0F0BD09B90720FAE70378A22BFAD146
:10ABD00001230393002AF2D0002DF0D02B68002B24
:10ABE000EDD0002FEBD0134603AA02F0FEFD0028A3
:10ABF000E6D100972B4603AA2146304602F03BFEE1
:10AC00000028DDD1039B9C4218BF0920D8E71346DA
:10AC10000A460146A22002F094BD0000F0B50D46A0
:10AC200085B01F460646F8B111B9072005B0F0BD42
:10AC300003789D2BF9D104AC012344F8043D13465D
:10AC4000224602F0D2FD0028F0D1084B00932246A4
:10AC50003B462946304603F0DCF80028E6D1039B4A
:10AC60009D4218BF0920E1E70E20DFE7A9B60200E8
:10AC700013460A4601469D2002F063BDF0B50D461D
:10AC800085B01F460646F8B111B9072005B0F0BDE2
:10AC900003789E2BF9D104AC012344F8043D1346FC
:10ACA000224602F0A2FD0028F0D1084B0093224674
:10ACB0003B462946304603F0ACF80028E6D1039B1A
:10ACC0009D4218BF0920E1E70E20DFE7A9B6020088
:10ACD00013460A4601469E2002F033BDF7B50D46E5
:10ACE0001F460646E8B111B9072003B0F0BD03784E
:10ACF000A42BF9D102AC012344F8043D13462246AB
:10AD000002F073FD0028F0D13B462246294630462A
:10AD100002F06BFD0028E8D1019B9D4218BF09207D
:10AD2000E3E70E20E1E713460A460146A42002F0BD
:10AD300008BD0000F0B50D4685B01F46064638B385
:10AD400011B9072005B0F0BD03789B2BF9D104ACF5
:10AD5000012344F8043D1346224602F046FD002834
:10AD6000F0D13B4622462946304602F03EFD0028FF
:10AD7000E8D1084B009322460A9B2946304603F04F
:10AD800048F80028DED1039B9D4218BF0920D9E76F
:10AD90000E20D7E775DB020013460A4601469B20CA
:10ADA00002F0CFBCF7B50D461F46064628B311B9D1
:10ADB000072003B0F0BD0378A12BF9D102AC012329
:10ADC00044F8043D1346224602F00FFD0028F0D15E
:10ADD0003B4622462946304602F007FD0028E8D1CE
:10ADE000089B22462946304602F0FFFC0028E0D1AD
:10ADF000019B9D4218BF0920DBE70E20D9E71346CF
:10AE00000A460146A12002F09CBC0000F0B50D46A8
:10AE100085B01F460646F8B111B9072005B0F0BD50
:10AE200003789C2BF9D104AC012344F8043D13466C
:10AE3000224602F0DAFC0028F0D1084B00932246AB
:10AE40003B462946304602F0E4FF0028E6D1039B4A
:10AE50009D4218BF0920E1E70E20DFE7A9B60200F6
:10AE600013460A4601469C2002F06BBCF0B50D4625
:10AE700085B01F460646F8B111B9072005B0F0BDF0
:10AE80000378A32BF9D104AC012344F8043D134605
:10AE9000224602F0AAFC0028F0D1084B009322467B
:10AEA0003B462946304602F0B4FF0028E6D1039B1A
:10AEB0009D4218BF0920E1E70E20DFE71DB8020020
:10AEC00013460A460146A32002F03BBCF7B50D46E7
:10AED0001F460646E8B111B9072003B0F0BD03785C
:10AEE000A52BF9D102AC012344F8043D13462246B8
:10AEF00002F07BFC0028F0D13B4622462946304632
:10AF000002F073FC0028E8D1019B9D4218BF092084
:10AF1000E3E70E20E1E713460A460146A52002F0CA
:10AF200010BCF7B515461F46044698B392B38BB3D1
:10AF30000388342B30D13E68ADF8023000220192F4
:10AF400001AB324629460DF1020002F03DFCF8B992
:10AF500001AB32462946201D02F036FCC0B901ABD8
:10AF600032462946A01D02F02FFC88B901AB3246BB
:10AF7000294604F1080002F027FC48B901AB32462B
:10AF8000294604F10A0000F077FC08B9019B3B60F8
:10AF900003B0F0BD0E20FBE70720F9E7F7B5154633
:10AFA0001F46044698B392B38BB30388322B30D13B
:10AFB0003E68ADF802300022019201AB32462946CC
:10AFC0000DF1020002F000FCF8B901AB324629464F
:10AFD000201D02F0F9FBC0B901AB32462946A01D85
:10AFE00002F0F2FB88B901AB3246294604F10800B1
:10AFF00002F0EAFB48B901AB3246294604F10A00E7
:10B0000000F07CFC08B9019B3B6003B0F0BD0E2052
:10B01000FBE70720F9E7F7B515461F46044698B346
:10B0200092B38BB30388352B30D13E68ADF8023034
:10B030000022019201AB324629460DF1020002F0D6
:10B04000C3FBF8B901AB32462946201D02F0BCFB18
:10B05000C0B901AB32462946A01D02F0B5FB88B944
:10B0600001AB3246294604F1080002F0ADFB48B9B5
:10B0700001AB3246294604F10A0000F069FB08B929
:10B08000019B3B6003B0F0BD0E20FBE70720F9E712
:10B09000F7B515461F46044698B392B38BB30388A1
:10B0A000372B30D13E68ADF802300022019201AB5F
:10B0B000324629460DF1020002F086FBF8B901ABD9
:10B0C00032462946201D02F07FFBC0B901AB324653
:10B0D0002946A01D02F078FB88B901AB324629460B
:10B0E00004F1080002F070FB48B901AB3246294672
:10B0F00004F10A0000F04FFB08B9019B3B6003B06C
:10B10000F0BD0E20FBE70720F9E7F7B515461F460F
:10B11000044698B392B38BB30388332B30D13E6887
:10B12000ADF802300022019201AB324629460DF102
:10B13000020002F049FBF8B901AB32462946201D56
:10B1400002F042FBC0B901AB32462946A01D02F015
:10B150003BFB88B901AB3246294604F1080002F0F6
:10B1600033FB48B901AB3246294604F10A0000F02E
:10B17000EFFB08B9019B3B6003B0F0BD0E20FBE77D
:10B180000720F9E7F7B515461F46044698B392B372
:10B190008BB30388392B30D13E68ADF802300022E2
:10B1A000019201AB324629460DF1020002F00CFB80
:10B1B000F8B901AB32462946201D02F005FBC0B9A3
:10B1C00001AB32462946A01D02F0FEFA88B901AB58
:10B1D0003246294604F1080002F0F6FA48B901ABFC
:10B1E0003246294604F10A0000F0DCFB08B9019B55
:10B1F0003B6003B0F0BD0E20FBE70720F9E7F7B591
:10B2000015461F46044698B392B38BB30388302B80
:10B2100030D13E68ADF802300022019201AB3246D7
:10B2200029460DF1020002F0CFFAF8B901AB32461F
:10B230002946201D02F0C8FAC0B901AB32462946A2
:10B24000A01D02F0C1FA88B901AB3246294604F1CB
:10B25000080002F0B9FA48B901AB3246294604F1B8
:10B260000A0000F0C3FB08B9019B3B6003B0F0BDCE
:10B270000E20FBE70720F9E7F7B515461F46044601
:10B2800098B392B38BB30388362B30D13E68ADF8B8
:10B2900002300022019201AB324629460DF1020034
:10B2A00002F092FAF8B901AB32462946201D02F0AD
:10B2B0008BFAC0B901AB32462946A01D02F084FAD0
:10B2C00088B901AB3246294604F1080002F07CFA45
:10B2D00048B901AB3246294604F10A0000F0B0FB40
:10B2E00008B9019B3B6003B0F0BD0E20FBE70720CF
:10B2F000F9E7F7B515461F46044698B392B38BB3EA
:10B300000388312B30D13E68ADF802300022019223
:10B3100001AB324629460DF1020002F055FAF8B9A8
:10B3200001AB32462946201D02F04EFAC0B901ABEE
:10B3300032462946A01D02F047FA88B901AB3246D1
:10B34000294604F1080002F03FFA48B901AB324641
:10B35000294604F10A0000F035FA08B9019B3B6068
:10B3600003B0F0BD0E20FBE70720F9E7F7B515465F
:10B370001F46044698B392B38BB303883B2B30D15E
:10B380003E68ADF802300022019201AB32462946F8
:10B390000DF1020002F018FAF8B901AB3246294665
:10B3A000201D02F011FAC0B901AB32462946A01D9A
:10B3B00002F00AFA88B901AB3246294604F10800C6
:10B3C00002F002FA48B901AB3246294604F10A00FC
:10B3D00000F05AFB08B9019B3B6003B0F0BD0E20A2
:10B3E000FBE70720F9E7F7B515461F46044698B373
:10B3F00092B38BB30388382B30D13E68ADF802305E
:10B400000022019201AB324629460DF1020002F002
:10B41000DBF9F8B901AB32462946201D02F0D4F918
:10B42000C0B901AB32462946A01D02F0CDF988B95A
:10B4300001AB3246294604F1080002F0C5F948B9CB
:10B4400001AB3246294604F10A0000F027FB08B997
:10B45000019B3B6003B0F0BD0E20FBE70720F9E73E
:10B46000F7B515461F46044698B392B38BB30388CD
:10B470003A2B30D13E68ADF802300022019201AB88
:10B48000324629460DF1020002F09EF9F8B901ABEF
:10B4900032462946201D02F097F9C0B901AB324669
:10B4A0002946A01D02F090F988B901AB3246294621
:10B4B00004F1080002F088F948B901AB3246294688
:10B4C00004F10A0000F016FB08B9019B3B6003B0D1
:10B4D000F0BD0E20FBE70720F9E7F7B515461F463C
:10B4E000044698B392B38BB303883C2B30D13E68AB
:10B4F000ADF802300022019201AB324629460DF12F
:10B50000020002F061F9F8B901AB32462946201D6C
:10B5100002F05AF9C0B901AB32462946A01D02F02B
:10B5200053F988B901AB3246294604F1080002F00C
:10B530004BF948B901AB3246294604F10A0002F042
:10B5400075F908B9019B3B6003B0F0BD0E20FBE725
:10B550000720F9E730B4029C1CB110B1A44630BCFE
:10B5600060470E2030BC7047F7B5044617461D46AD
:10B570000E4691B18BB180B1DFF828E0CDF800E044
:10B58000FFF7E8FF38B9064B00933A462B463146A1
:10B59000201DFFF7DFFF03B0F0BD0E20FBE700BF6B
:10B5A000A9B5020047DB02002DE9F0410446174629
:10B5B0001D460E4661B15BB150B102F005F940B9CC
:10B5C0002B463A463146A01CBDE8F04102F0FCB8DB
:10B5D0000E20BDE8F0810000F7B5044617461D4671
:10B5E0000E4671B16BB160B102F0EEF838B9064B9E
:10B5F00000933A462B463146A01CFFF7ABFF03B041
:10B60000F0BD0E20FBE700BF69B50200F7B50446A8
:10B6100017461D460E4671B16BB160B102F0D4F809
:10B6200038B9064B00933A462B463146A01CFFF72B
:10B6300091FF03B0F0BD0E20FBE700BF47DB020027
:10B64000F7B5044617461D460E4671B16BB160B1A1
:10B6500002F0BAF838B9064B00933A462B46314609
:10B66000A01CFFF777FF03B0F0BD0E20FBE700BF83
:10B67000A3DB0200F7B5044617461D460E4671B11E
:10B680006BB160B102F0A0F838B9064B00933A46AE
:10B690002B463146A01CFFF75DFF03B0F0BD0E2026
:10B6A000FBE700BF47DB02002DE9F0410F461446DF
:10B6B0001D46064660B15AB153B102F096F840B942
:10B6C000AB1C224639463046BDE8F04102F08DB849
:10B6D0000E20BDE8F0810000F0B5044685B01746A5
:10B6E0001D460E4669B363B358B3DFF860E0CDF88A
:10B6F00000E0FFF72FFF10BB134B00933A462B4699
:10B700003146201DFFF726FFC8B9637904A8C3F3AB
:10B71000000300F8013D3A462B46314602F086F818
:10B7200068B92B463A463146A01D02F04DF830B9B3
:10B730002B463A46314604F1080002F045F805B0C0
:10B74000F0BD0E20FBE700BF09AA020047DB0200A4
:10B75000F7B5044617461D460E46D1B1CBB1C0B170
:10B7600002F032F898B92B463A463146A01C02F056
:10B770002BF860B9618820468B1C30F8041B0095BB
:10B7800011FB03F132463B4689B202F084F903B063
:10B79000F0BD0E20FBE7F7B5044617461D460E46E2
:10B7A00071B16BB160B102F00FF838B920463B4679
:10B7B00030F8021B0095324602F06DF903B0F0BD7F
:10B7C0000E20FBE72DE9F74F064692461F468946B5
:10B7D000E9B1E3B1D8B101F0F7FF044648B906F189
:10B7E000020B05464FF00A0833889D4208FB05B05E
:10B7F00003D3204603B0BDE8F08F074B00935246B9
:10B800003B464946FFF7A6FE18B90135ECE70E2482
:10B81000EFE70446EDE700BFD9B50200F7B50F46E4
:10B8200015461C46064620B31AB313B302F00BF8B4
:10B83000E8B9631C2A463946304602F004F8B0B92C
:10B84000A31C2A463946304601F0CFFF78B9231DA4
:10B850002A463946304601F0C8FF40B9A31D00937F
:10B860002A4604F108033946304602F0FCF803B0DA
:10B87000F0BD0E20FBE700002DE9F04F054685B036
:10B88000934699468A4681B37BB370B301F09CFF1F
:10B890000446A0B94B465A465146A81C01F0C6FFC3
:10B8A000044660B9A978134B134A2E1D012918BF0D
:10B8B0001A460392B04607462B889F4203D3204680
:10B8C00005B0BDE8F08FA878039B0093012814BF52
:10B8D000404630464B465A465146FFF73BFE063639
:10B8E00008F1120818B90137E6E70E24E7E7044625
:10B8F000E5E700BF41B602000DB602002DE9F74FA3
:10B900000646924698468946E1B1DBB1D0B101F0D6
:10B910005BFF044630B9DFF834B0B71C0546338806
:10B920009D4203D3204603B0BDE8F08F3846CDF8E2
:10B9300000B0434652464946FFF70CFE0A3718B995
:10B940000135ECE70E24EDE70446EBE7D9B602003B
:10B950002DE9F74F0646924698468946E1B1DBB19C
:10B96000D0B101F031FF044630B9DFF834B0B71C74
:10B97000054633889D4203D3204603B0BDE8F08FCF
:10B980003846CDF800B0434652464946FFF7E2FD3F
:10B99000063718B90135ECE70E24EDE70446EBE76E
:10B9A00075B60200F7B5044617461D460E46D9B1D6
:10B9B000D3B1C8B101F008FFA0B92B463A463146D1
:10B9C000A01C01F033FF68B92B463A463146201DD2
:10B9D00001F0FAFE30B9A18800953B463246A01D21
:10B9E00002F059F803B0F0BD0E20FBE72DE9F74F48
:10B9F0000646924698468946E1B1DBB1D0B101F0E6
:10BA0000E3FE044630B9DFF834B0B71C054633888E
:10BA10009D4203D3204603B0BDE8F08F3846CDF8F1
:10BA200000B0434652464946FFF794FD083718B91F
:10BA30000135ECE70E24EDE70446EBE769B50200BB
:10BA4000F7B5044617461D460E46D9B1D3B1C8B165
:10BA500001F0BAFEA0B92B463A463146A01C01F0CF
:10BA6000B3FE68B92B463A463146201D01F0ACFEC4
:10BA700030B9A18800953B463246A01D02F00BF874
:10BA800003B0F0BD0E20FBE730B421B11BB110B103
:10BA900030BC01F0CBBE0E2030BC7047F7B5044679
:10BAA00017461D460E4619B313B308B301F08CFEBA
:10BAB000E0B92B463A463146A01C01F0B7FEA8B9C2
:10BAC0002B463A463146201D01F07EFE70B92B46CA
:10BAD0003A463146A01D01F077FE38B9E18800955D
